{
  "contractName": "BankSetup",
  "abi": [
    {
      "inputs": [],
      "payable": false,
      "stateMutability": "nonpayable",
      "type": "constructor"
    },
    {
      "anonymous": false,
      "inputs": [
        {
          "indexed": true,
          "internalType": "address",
          "name": "previousOwner",
          "type": "address"
        },
        {
          "indexed": true,
          "internalType": "address",
          "name": "newOwner",
          "type": "address"
        }
      ],
      "name": "OwnershipTransferred",
      "type": "event"
    },
    {
      "anonymous": false,
      "inputs": [
        {
          "indexed": true,
          "internalType": "address",
          "name": "account",
          "type": "address"
        }
      ],
      "name": "SignerAdded",
      "type": "event"
    },
    {
      "anonymous": false,
      "inputs": [
        {
          "indexed": true,
          "internalType": "address",
          "name": "account",
          "type": "address"
        }
      ],
      "name": "SignerRemoved",
      "type": "event"
    },
    {
      "anonymous": false,
      "inputs": [
        {
          "indexed": false,
          "internalType": "address",
          "name": "bankAddress",
          "type": "address"
        },
        {
          "indexed": false,
          "internalType": "string",
          "name": "bankName",
          "type": "string"
        }
      ],
      "name": "bankAdded",
      "type": "event"
    },
    {
      "anonymous": false,
      "inputs": [
        {
          "indexed": false,
          "internalType": "address",
          "name": "bankAddress",
          "type": "address"
        }
      ],
      "name": "bankRemoved",
      "type": "event"
    },
    {
      "anonymous": false,
      "inputs": [
        {
          "indexed": false,
          "internalType": "address",
          "name": "bankAddress",
          "type": "address"
        }
      ],
      "name": "bankReopened",
      "type": "event"
    },
    {
      "anonymous": false,
      "inputs": [
        {
          "indexed": false,
          "internalType": "address",
          "name": "bankAddress",
          "type": "address"
        },
        {
          "indexed": false,
          "internalType": "uint256",
          "name": "mobileNumber",
          "type": "uint256"
        }
      ],
      "name": "mobileNumberAdded",
      "type": "event"
    },
    {
      "anonymous": false,
      "inputs": [
        {
          "indexed": false,
          "internalType": "uint256",
          "name": "mobileNumber",
          "type": "uint256"
        }
      ],
      "name": "mobileNumberRemoved",
      "type": "event"
    },
    {
      "anonymous": false,
      "inputs": [
        {
          "indexed": false,
          "internalType": "uint256",
          "name": "mobileNumber",
          "type": "uint256"
        },
        {
          "indexed": false,
          "internalType": "address",
          "name": "bank",
          "type": "address"
        },
        {
          "indexed": false,
          "internalType": "uint256",
          "name": "amount",
          "type": "uint256"
        }
      ],
      "name": "mobileRecordAdded",
      "type": "event"
    },
    {
      "constant": false,
      "inputs": [
        {
          "internalType": "address",
          "name": "account",
          "type": "address"
        }
      ],
      "name": "addSigner",
      "outputs": [],
      "payable": false,
      "stateMutability": "nonpayable",
      "type": "function"
    },
    {
      "constant": true,
      "inputs": [],
      "name": "isOwner",
      "outputs": [
        {
          "internalType": "bool",
          "name": "",
          "type": "bool"
        }
      ],
      "payable": false,
      "stateMutability": "view",
      "type": "function"
    },
    {
      "constant": true,
      "inputs": [
        {
          "internalType": "address",
          "name": "account",
          "type": "address"
        }
      ],
      "name": "isSigner",
      "outputs": [
        {
          "internalType": "bool",
          "name": "",
          "type": "bool"
        }
      ],
      "payable": false,
      "stateMutability": "view",
      "type": "function"
    },
    {
      "constant": true,
      "inputs": [],
      "name": "owner",
      "outputs": [
        {
          "internalType": "address",
          "name": "",
          "type": "address"
        }
      ],
      "payable": false,
      "stateMutability": "view",
      "type": "function"
    },
    {
      "constant": false,
      "inputs": [],
      "name": "renounceOwnership",
      "outputs": [],
      "payable": false,
      "stateMutability": "nonpayable",
      "type": "function"
    },
    {
      "constant": false,
      "inputs": [],
      "name": "renounceSigner",
      "outputs": [],
      "payable": false,
      "stateMutability": "nonpayable",
      "type": "function"
    },
    {
      "constant": false,
      "inputs": [
        {
          "internalType": "address",
          "name": "newOwner",
          "type": "address"
        }
      ],
      "name": "transferOwnership",
      "outputs": [],
      "payable": false,
      "stateMutability": "nonpayable",
      "type": "function"
    },
    {
      "constant": false,
      "inputs": [
        {
          "internalType": "address",
          "name": "bank",
          "type": "address"
        },
        {
          "internalType": "string",
          "name": "bankName",
          "type": "string"
        }
      ],
      "name": "createBank",
      "outputs": [
        {
          "internalType": "bool",
          "name": "",
          "type": "bool"
        }
      ],
      "payable": false,
      "stateMutability": "nonpayable",
      "type": "function"
    },
    {
      "constant": false,
      "inputs": [
        {
          "internalType": "address",
          "name": "bank",
          "type": "address"
        }
      ],
      "name": "reopenBank",
      "outputs": [
        {
          "internalType": "bool",
          "name": "",
          "type": "bool"
        }
      ],
      "payable": false,
      "stateMutability": "nonpayable",
      "type": "function"
    },
    {
      "constant": false,
      "inputs": [
        {
          "internalType": "address",
          "name": "bank",
          "type": "address"
        }
      ],
      "name": "removeBank",
      "outputs": [],
      "payable": false,
      "stateMutability": "nonpayable",
      "type": "function"
    },
    {
      "constant": true,
      "inputs": [
        {
          "internalType": "address",
          "name": "bank",
          "type": "address"
        }
      ],
      "name": "getBankDetails",
      "outputs": [
        {
          "internalType": "string",
          "name": "bankName",
          "type": "string"
        },
        {
          "internalType": "bool",
          "name": "authorization",
          "type": "bool"
        }
      ],
      "payable": false,
      "stateMutability": "view",
      "type": "function"
    },
    {
      "constant": false,
      "inputs": [
        {
          "internalType": "uint256",
          "name": "mobileNumber",
          "type": "uint256"
        },
        {
          "internalType": "address",
          "name": "bank",
          "type": "address"
        }
      ],
      "name": "addMobileNumber",
      "outputs": [],
      "payable": false,
      "stateMutability": "nonpayable",
      "type": "function"
    },
    {
      "constant": false,
      "inputs": [
        {
          "internalType": "uint256",
          "name": "mobileNumber",
          "type": "uint256"
        },
        {
          "internalType": "address",
          "name": "bank",
          "type": "address"
        }
      ],
      "name": "removeMobileNumber",
      "outputs": [
        {
          "internalType": "bool",
          "name": "",
          "type": "bool"
        }
      ],
      "payable": false,
      "stateMutability": "nonpayable",
      "type": "function"
    },
    {
      "constant": true,
      "inputs": [
        {
          "internalType": "uint256",
          "name": "mobileNumber",
          "type": "uint256"
        }
      ],
      "name": "getMobileNumberBanks",
      "outputs": [
        {
          "internalType": "address[]",
          "name": "_bank",
          "type": "address[]"
        }
      ],
      "payable": false,
      "stateMutability": "view",
      "type": "function"
    },
    {
      "constant": false,
      "inputs": [
        {
          "internalType": "uint256",
          "name": "mobileNumber",
          "type": "uint256"
        },
        {
          "internalType": "address",
          "name": "bank",
          "type": "address"
        },
        {
          "internalType": "uint256",
          "name": "amount",
          "type": "uint256"
        }
      ],
      "name": "addMobileRecord",
      "outputs": [
        {
          "internalType": "bool",
          "name": "",
          "type": "bool"
        }
      ],
      "payable": false,
      "stateMutability": "nonpayable",
      "type": "function"
    },
    {
      "constant": true,
      "inputs": [
        {
          "internalType": "uint256",
          "name": "mobileNumber",
          "type": "uint256"
        }
      ],
      "name": "getMobileRecord",
      "outputs": [
        {
          "internalType": "address[]",
          "name": "_record",
          "type": "address[]"
        },
        {
          "internalType": "uint256[]",
          "name": "_amount",
          "type": "uint256[]"
        }
      ],
      "payable": false,
      "stateMutability": "view",
      "type": "function"
    }
  ],
  "bytecode": "0x60806040523480156200001157600080fd5b50620000226200023460201b60201c565b6000806101000a81548173ffffffffffffffffffffffffffffffffffffffff021916908373ffffffffffffffffffffffffffffffffffffffff1602179055506000809054906101000a900473ffffffffffffffffffffffffffffffffffffffff1673ffffffffffffffffffffffffffffffffffffffff16600073ffffffffffffffffffffffffffffffffffffffff167f8be0079c531659141344cd1fd0a4f28419497f9722a3daafe3b4186f6b6457e060405160405180910390a3620000fd620000f16200023460201b60201c565b6200023c60201b60201c565b33600260006101000a81548173ffffffffffffffffffffffffffffffffffffffff021916908373ffffffffffffffffffffffffffffffffffffffff16021790555060405180604001604052806040518060400160405280601181526020017f476169612043656e7472616c2042616e6b00000000000000000000000000000081525081526020016001151581525060036000600260009054906101000a900473ffffffffffffffffffffffffffffffffffffffff1673ffffffffffffffffffffffffffffffffffffffff1673ffffffffffffffffffffffffffffffffffffffff16815260200190815260200160002060008201518160000190805190602001906200020a92919062000461565b5060208201518160010160006101000a81548160ff02191690831515021790555090505062000510565b600033905090565b620002578160016200029d60201b62001c6a1790919060201c565b8073ffffffffffffffffffffffffffffffffffffffff167f47d1c22a25bb3a5d4e481b9b1e6944c2eade3181a0a20b495ed61d35b5323f2460405160405180910390a250565b620002af82826200038160201b60201c565b1562000323576040517f08c379a000000000000000000000000000000000000000000000000000000000815260040180806020018281038252601f8152602001807f526f6c65733a206163636f756e7420616c72656164792068617320726f6c650081525060200191505060405180910390fd5b60018260000160008373ffffffffffffffffffffffffffffffffffffffff1673ffffffffffffffffffffffffffffffffffffffff16815260200190815260200160002060006101000a81548160ff0219169083151502179055505050565b60008073ffffffffffffffffffffffffffffffffffffffff168273ffffffffffffffffffffffffffffffffffffffff1614156200040a576040517f08c379a0000000000000000000000000000000000000000000000000000000008152600401808060200182810382526022815260200180620024046022913960400191505060405180910390fd5b8260000160008373ffffffffffffffffffffffffffffffffffffffff1673ffffffffffffffffffffffffffffffffffffffff16815260200190815260200160002060009054906101000a900460ff16905092915050565b828054600181600116156101000203166002900490600052602060002090601f016020900481019282601f10620004a457805160ff1916838001178555620004d5565b82800160010185558215620004d5579182015b82811115620004d4578251825591602001919060010190620004b7565b5b509050620004e49190620004e8565b5090565b6200050d91905b8082111562000509576000816000905550600101620004ef565b5090565b90565b611ee480620005206000396000f3fe608060405234801561001057600080fd5b50600436106101005760003560e01c80639e5eb5ec11610097578063ca0196d811610066578063ca0196d8146105d9578063e5c8b03d146106a4578063eb12d61e146106ae578063f2fde38b146106f257610100565b80639e5eb5ec14610397578063a9205bf414610407578063b8558cbe14610463578063c27a5f7b1461055657610100565b80637df73e27116100d35780637df73e271461028b5780638da5cb5b146102e75780638f32d59b146103315780639649650c1461035357610100565b80630a708c711461010557806315101e021461016b578063715018a61461023357806378e7b24f1461023d575b600080fd5b6101516004803603604081101561011b57600080fd5b8101908080359060200190929190803573ffffffffffffffffffffffffffffffffffffffff169060200190929190505050610736565b604051808215151515815260200191505060405180910390f35b6101ad6004803603602081101561018157600080fd5b81019080803573ffffffffffffffffffffffffffffffffffffffff1690602001909291905050506109ea565b604051808060200183151515158152602001828103825284818151815260200191508051906020019080838360005b838110156101f75780820151818401526020810190506101dc565b50505050905090810190601f1680156102245780820380516001836020036101000a031916815260200191505b50935050505060405180910390f35b61023b610b25565b005b6102896004803603604081101561025357600080fd5b8101908080359060200190929190803573ffffffffffffffffffffffffffffffffffffffff169060200190929190505050610c5e565b005b6102cd600480360360208110156102a157600080fd5b81019080803573ffffffffffffffffffffffffffffffffffffffff169060200190929190505050610e80565b604051808215151515815260200191505060405180910390f35b6102ef610e9d565b604051808273ffffffffffffffffffffffffffffffffffffffff1673ffffffffffffffffffffffffffffffffffffffff16815260200191505060405180910390f35b610339610ec6565b604051808215151515815260200191505060405180910390f35b6103956004803603602081101561036957600080fd5b81019080803573ffffffffffffffffffffffffffffffffffffffff169060200190929190505050610f24565b005b6103ed600480360360608110156103ad57600080fd5b8101908080359060200190929190803573ffffffffffffffffffffffffffffffffffffffff16906020019092919080359060200190929190505050611068565b604051808215151515815260200191505060405180910390f35b6104496004803603602081101561041d57600080fd5b81019080803573ffffffffffffffffffffffffffffffffffffffff169060200190929190505050611207565b604051808215151515815260200191505060405180910390f35b61053c6004803603604081101561047957600080fd5b81019080803573ffffffffffffffffffffffffffffffffffffffff169060200190929190803590602001906401000000008111156104b657600080fd5b8201836020820111156104c857600080fd5b803590602001918460018302840111640100000000831117156104ea57600080fd5b91908080601f016020809104026020016040519081016040528093929190818152602001838380828437600081840152601f19601f820116905080830192505050505050509192919290505050611353565b604051808215151515815260200191505060405180910390f35b6105826004803603602081101561056c57600080fd5b8101908080359060200190929190505050611549565b6040518080602001828103825283818151815260200191508051906020019060200280838360005b838110156105c55780820151818401526020810190506105aa565b505050509050019250505060405180910390f35b610605600480360360208110156105ef57600080fd5b810190808035906020019092919050505061164f565b604051808060200180602001838103835285818151815260200191508051906020019060200280838360005b8381101561064c578082015181840152602081019050610631565b50505050905001838103825284818151815260200191508051906020019060200280838360005b8381101561068e578082015181840152602081019050610673565b5050505090500194505050505060405180910390f35b6106ac6117c6565b005b6106f0600480360360208110156106c457600080fd5b81019080803573ffffffffffffffffffffffffffffffffffffffff1690602001909291905050506117d8565b005b6107346004803603602081101561070857600080fd5b81019080803573ffffffffffffffffffffffffffffffffffffffff169060200190929190505050611849565b005b60006107486107436118cf565b610e80565b61079d576040517f08c379a0000000000000000000000000000000000000000000000000000000008152600401808060200182810382526030815260200180611e806030913960400191505060405180910390fd5b60008090505b60046000858152602001908152602001600020805490508110156109a8578273ffffffffffffffffffffffffffffffffffffffff166004600086815260200190815260200160002082815481106107f657fe5b9060005260206000200160009054906101000a900473ffffffffffffffffffffffffffffffffffffffff1673ffffffffffffffffffffffffffffffffffffffff16141561099b5760046000858152602001908152602001600020818154811061085b57fe5b9060005260206000200160006101000a81549073ffffffffffffffffffffffffffffffffffffffff021916905560008190505b600160046000878152602001908152602001600020805490500381101561096e576004600086815260200190815260200160002060018201815481106108d057fe5b9060005260206000200160009054906101000a900473ffffffffffffffffffffffffffffffffffffffff1660046000878152602001908152602001600020828154811061091957fe5b9060005260206000200160006101000a81548173ffffffffffffffffffffffffffffffffffffffff021916908373ffffffffffffffffffffffffffffffffffffffff160217905550808060010191505061088e565b50600460008581526020019081526020016000208054809190600190036109959190611d45565b506109a8565b80806001019150506107a3565b507fd221d4795e8b405ed76af8a1d10adbd3a56abc94c508dec10a26c97b2ef95187836040518082815260200191505060405180910390a16001905092915050565b60606000600360008473ffffffffffffffffffffffffffffffffffffffff1673ffffffffffffffffffffffffffffffffffffffff168152602001908152602001600020600001600360008573ffffffffffffffffffffffffffffffffffffffff1673ffffffffffffffffffffffffffffffffffffffff16815260200190815260200160002060010160009054906101000a900460ff16818054600181600116156101000203166002900480601f016020809104026020016040519081016040528092919081815260200182805460018160011615610100020316600290048015610b155780601f10610aea57610100808354040283529160200191610b15565b820191906000526020600020905b815481529060010190602001808311610af857829003601f168201915b5050505050915091509150915091565b610b2d610ec6565b610b9f576040517f08c379a00000000000000000000000000000000000000000000000000000000081526004018080602001828103825260208152602001807f4f776e61626c653a2063616c6c6572206973206e6f7420746865206f776e657281525060200191505060405180910390fd5b600073ffffffffffffffffffffffffffffffffffffffff166000809054906101000a900473ffffffffffffffffffffffffffffffffffffffff1673ffffffffffffffffffffffffffffffffffffffff167f8be0079c531659141344cd1fd0a4f28419497f9722a3daafe3b4186f6b6457e060405160405180910390a360008060006101000a81548173ffffffffffffffffffffffffffffffffffffffff021916908373ffffffffffffffffffffffffffffffffffffffff160217905550565b610c6e610c696118cf565b610e80565b610cc3576040517f08c379a0000000000000000000000000000000000000000000000000000000008152600401808060200182810382526030815260200180611e806030913960400191505060405180910390fd5b60008090505b6004600084815260200190815260200160002080549050811015610d76578173ffffffffffffffffffffffffffffffffffffffff16600460008581526020019081526020016000208281548110610d1c57fe5b9060005260206000200160009054906101000a900473ffffffffffffffffffffffffffffffffffffffff1673ffffffffffffffffffffffffffffffffffffffff161415610d695750610e7c565b8080600101915050610cc9565b50600460008381526020019081526020016000208190806001815401808255809150509060018203906000526020600020016000909192909190916101000a81548173ffffffffffffffffffffffffffffffffffffffff021916908373ffffffffffffffffffffffffffffffffffffffff160217905550507f5df8e4d9a90a0dfaef90d6590c125fb28bd2ae8651f164b537fd550dd9afdc7b600260009054906101000a900473ffffffffffffffffffffffffffffffffffffffff1683604051808373ffffffffffffffffffffffffffffffffffffffff1673ffffffffffffffffffffffffffffffffffffffff1681526020018281526020019250505060405180910390a15b5050565b6000610e968260016118d790919063ffffffff16565b9050919050565b60008060009054906101000a900473ffffffffffffffffffffffffffffffffffffffff16905090565b60008060009054906101000a900473ffffffffffffffffffffffffffffffffffffffff1673ffffffffffffffffffffffffffffffffffffffff16610f086118cf565b73ffffffffffffffffffffffffffffffffffffffff1614905090565b610f2c610ec6565b610f9e576040517f08c379a00000000000000000000000000000000000000000000000000000000081526004018080602001828103825260208152602001807f4f776e61626c653a2063616c6c6572206973206e6f7420746865206f776e657281525060200191505060405180910390fd5b6000600360008373ffffffffffffffffffffffffffffffffffffffff1673ffffffffffffffffffffffffffffffffffffffff16815260200190815260200160002060010160006101000a81548160ff021916908315150217905550611002816119b5565b7fe3e5c5370b774840383ec3fed4645270fc0ef033b07c288700b5de33a6e1aa3381604051808273ffffffffffffffffffffffffffffffffffffffff1673ffffffffffffffffffffffffffffffffffffffff16815260200191505060405180910390a150565b600061107a6110756118cf565b610e80565b6110cf576040517f08c379a0000000000000000000000000000000000000000000000000000000008152600401808060200182810382526030815260200180611e806030913960400191505060405180910390fd5b600560008581526020019081526020016000206000018390806001815401808255809150509060018203906000526020600020016000909192909190916101000a81548173ffffffffffffffffffffffffffffffffffffffff021916908373ffffffffffffffffffffffffffffffffffffffff16021790555050600560008581526020019081526020016000206001018290806001815401808255809150509060018203906000526020600020016000909192909190915055507f45cb78271d603378233590040f732e0414a19a7de4d281b3a6e0ed100b05b144848484604051808481526020018373ffffffffffffffffffffffffffffffffffffffff1673ffffffffffffffffffffffffffffffffffffffff168152602001828152602001935050505060405180910390a1600190509392505050565b6000611211610ec6565b611283576040517f08c379a00000000000000000000000000000000000000000000000000000000081526004018080602001828103825260208152602001807f4f776e61626c653a2063616c6c6572206973206e6f7420746865206f776e657281525060200191505060405180910390fd5b6001600360008473ffffffffffffffffffffffffffffffffffffffff1673ffffffffffffffffffffffffffffffffffffffff16815260200190815260200160002060010160006101000a81548160ff0219169083151502179055506112e782611a0f565b7f7bbf54e82065601cca7d6dfda797c2671c1661bd0206fcdd08ba7ee0524440de82604051808273ffffffffffffffffffffffffffffffffffffffff1673ffffffffffffffffffffffffffffffffffffffff16815260200191505060405180910390a160019050919050565b600061135d610ec6565b6113cf576040517f08c379a00000000000000000000000000000000000000000000000000000000081526004018080602001828103825260208152602001807f4f776e61626c653a2063616c6c6572206973206e6f7420746865206f776e657281525060200191505060405180910390fd5b604051806040016040528083815260200160011515815250600360008573ffffffffffffffffffffffffffffffffffffffff1673ffffffffffffffffffffffffffffffffffffffff1681526020019081526020016000206000820151816000019080519060200190611442929190611d71565b5060208201518160010160006101000a81548160ff02191690831515021790555090505061146f83611a0f565b7faa6cbb7deeebddc29368336fd18e97ea31f1a41a7dea158381add9b0bfa39c878383604051808373ffffffffffffffffffffffffffffffffffffffff1673ffffffffffffffffffffffffffffffffffffffff16815260200180602001828103825283818151815260200191508051906020019080838360005b838110156115045780820151818401526020810190506114e9565b50505050905090810190601f1680156115315780820380516001836020036101000a031916815260200191505b50935050505060405180910390a16001905092915050565b606061155b6115566118cf565b610e80565b6115b0576040517f08c379a0000000000000000000000000000000000000000000000000000000008152600401808060200182810382526030815260200180611e806030913960400191505060405180910390fd5b6004600083815260200190815260200160002080548060200260200160405190810160405280929190818152602001828054801561164357602002820191906000526020600020905b8160009054906101000a900473ffffffffffffffffffffffffffffffffffffffff1673ffffffffffffffffffffffffffffffffffffffff16815260200190600101908083116115f9575b50505050509050919050565b60608061166261165d6118cf565b610e80565b6116b7576040517f08c379a0000000000000000000000000000000000000000000000000000000008152600401808060200182810382526030815260200180611e806030913960400191505060405180910390fd5b60056000848152602001908152602001600020600001600560008581526020019081526020016000206001018180548060200260200160405190810160405280929190818152602001828054801561176457602002820191906000526020600020905b8160009054906101000a900473ffffffffffffffffffffffffffffffffffffffff1673ffffffffffffffffffffffffffffffffffffffff168152602001906001019080831161171a575b50505050509150808054806020026020016040519081016040528092919081815260200182805480156117b657602002820191906000526020600020905b8154815260200190600101908083116117a2575b5050505050905091509150915091565b6117d66117d16118cf565b6119b5565b565b6117e86117e36118cf565b610e80565b61183d576040517f08c379a0000000000000000000000000000000000000000000000000000000008152600401808060200182810382526030815260200180611e806030913960400191505060405180910390fd5b61184681611a0f565b50565b611851610ec6565b6118c3576040517f08c379a00000000000000000000000000000000000000000000000000000000081526004018080602001828103825260208152602001807f4f776e61626c653a2063616c6c6572206973206e6f7420746865206f776e657281525060200191505060405180910390fd5b6118cc81611a69565b50565b600033905090565b60008073ffffffffffffffffffffffffffffffffffffffff168273ffffffffffffffffffffffffffffffffffffffff16141561195e576040517f08c379a0000000000000000000000000000000000000000000000000000000008152600401808060200182810382526022815260200180611e5e6022913960400191505060405180910390fd5b8260000160008373ffffffffffffffffffffffffffffffffffffffff1673ffffffffffffffffffffffffffffffffffffffff16815260200190815260200160002060009054906101000a900460ff16905092915050565b6119c9816001611bad90919063ffffffff16565b8073ffffffffffffffffffffffffffffffffffffffff167f3525e22824a8a7df2c9a6029941c824cf95b6447f1e13d5128fd3826d35afe8b60405160405180910390a250565b611a23816001611c6a90919063ffffffff16565b8073ffffffffffffffffffffffffffffffffffffffff167f47d1c22a25bb3a5d4e481b9b1e6944c2eade3181a0a20b495ed61d35b5323f2460405160405180910390a250565b600073ffffffffffffffffffffffffffffffffffffffff168173ffffffffffffffffffffffffffffffffffffffff161415611aef576040517f08c379a0000000000000000000000000000000000000000000000000000000008152600401808060200182810382526026815260200180611e176026913960400191505060405180910390fd5b8073ffffffffffffffffffffffffffffffffffffffff166000809054906101000a900473ffffffffffffffffffffffffffffffffffffffff1673ffffffffffffffffffffffffffffffffffffffff167f8be0079c531659141344cd1fd0a4f28419497f9722a3daafe3b4186f6b6457e060405160405180910390a3806000806101000a81548173ffffffffffffffffffffffffffffffffffffffff021916908373ffffffffffffffffffffffffffffffffffffffff16021790555050565b611bb782826118d7565b611c0c576040517f08c379a0000000000000000000000000000000000000000000000000000000008152600401808060200182810382526021815260200180611e3d6021913960400191505060405180910390fd5b60008260000160008373ffffffffffffffffffffffffffffffffffffffff1673ffffffffffffffffffffffffffffffffffffffff16815260200190815260200160002060006101000a81548160ff0219169083151502179055505050565b611c7482826118d7565b15611ce7576040517f08c379a000000000000000000000000000000000000000000000000000000000815260040180806020018281038252601f8152602001807f526f6c65733a206163636f756e7420616c72656164792068617320726f6c650081525060200191505060405180910390fd5b60018260000160008373ffffffffffffffffffffffffffffffffffffffff1673ffffffffffffffffffffffffffffffffffffffff16815260200190815260200160002060006101000a81548160ff0219169083151502179055505050565b815481835581811115611d6c57818360005260206000209182019101611d6b9190611df1565b5b505050565b828054600181600116156101000203166002900490600052602060002090601f016020900481019282601f10611db257805160ff1916838001178555611de0565b82800160010185558215611de0579182015b82811115611ddf578251825591602001919060010190611dc4565b5b509050611ded9190611df1565b5090565b611e1391905b80821115611e0f576000816000905550600101611df7565b5090565b9056fe4f776e61626c653a206e6577206f776e657220697320746865207a65726f2061646472657373526f6c65733a206163636f756e7420646f6573206e6f74206861766520726f6c65526f6c65733a206163636f756e7420697320746865207a65726f20616464726573735369676e6572526f6c653a2063616c6c657220646f6573206e6f74206861766520746865205369676e657220726f6c65a265627a7a72315820633655ad56c988f1aba82f08194713d42caf7a804be952f69b8bb754a22809bf64736f6c634300050c0032526f6c65733a206163636f756e7420697320746865207a65726f2061646472657373",
  "source": "pragma solidity ^0.5.0;\r\n\r\nimport '../node_modules/@openzeppelin/contracts/ownership/Ownable.sol';\r\nimport '../node_modules/@openzeppelin/contracts/access/roles/SignerRole.sol';\r\nimport '../node_modules/@openzeppelin/contracts/math/SafeMath.sol';\r\n\r\n/**\r\n* @title BankSetup\r\n*\r\n* @dev @notice This contract allows :\r\n*               1. Central bank to setup, close and reopen settlement banks\r\n*               2. Central bank to create and remove settlement banks role\r\n*               3. View bank details\r\n*               4. Settlement bank to create, close and view moible number account for their clients\r\n*               5. Keep transfer fund transaction records between settlement banks\r\n*\r\n* @author Cheryl Kwong\r\n*\r\n*/\r\n\r\ncontract BankSetup is Ownable,SignerRole {\r\n    // Avoiding common attacks : Integer Over/Underflow\r\n    using SafeMath for uint256;\r\n\r\n    // bank login address;\r\n    address private loginBank;\r\n\r\n    // bank details for settlement bank\r\n    struct BankDetails {\r\n        string name;\r\n        bool authorized;\r\n    }\r\n\r\n    // Transfer fund transaction records\r\n    struct MobileTrans{\r\n        address[] sendBank;\r\n        uint256[] amount;\r\n    }\r\n\r\n    // settlement bank\r\n    mapping (address => BankDetails) internal banks;\r\n\r\n    // mobile number accounts of settlement banks' client\r\n    mapping (uint256 => address[]) private mobileNumbers;\r\n\r\n    // transfer fund transaction records, keep by mobile number\r\n    mapping (uint256 => MobileTrans) private mobileRecord;\r\n\r\n    // Events - publicize actions to external listeners\r\n    event bankAdded(address bankAddress, string bankName);\r\n    event bankReopened(address bankAddress);\r\n    event bankRemoved(address bankAddress);\r\n    event mobileNumberAdded(address bankAddress, uint256 mobileNumber);\r\n    event mobileNumberRemoved(uint256 mobileNumber);\r\n    event mobileRecordAdded(uint256 mobileNumber,address bank, uint256 amount);\r\n\r\n    constructor () public {\r\n        loginBank = msg.sender;\r\n        banks[loginBank] = BankDetails(\"Gaia Central Bank\",true);\r\n    }\r\n\r\n    /**\r\n    * @dev Create a new settlement bank account\r\n    *      Settlement bank role create\r\n    * @param bank the bank account address\r\n    * @param bankName the name of the settlement bank\r\n    * @return boolean\r\n    */\r\n   function createBank(address bank, string memory bankName) public onlyOwner returns(bool) {\r\n            banks[bank] = BankDetails(bankName, true);\r\n            _addSigner(bank);\r\n            emit bankAdded(bank, bankName);\r\n            return true;\r\n    }\r\n\r\n    /**\r\n    * @dev Reopen an closed settlement bank account\r\n    *      Settlement bank role added\r\n    *      Only contract Owner can perform this function\r\n    * @param bank the bank account address\r\n    * @return boolean\r\n    */\r\n   function reopenBank(address bank) public onlyOwner returns(bool) {\r\n            banks[bank].authorized = true;\r\n            _addSigner(bank);\r\n            emit bankReopened(bank);\r\n            return true;\r\n    }\r\n\r\n    /**\r\n    * @dev Remove a settlement bank account\r\n    *      Settlement bank role remove\r\n    *      Only contract Owner can perform this function\r\n    * @param bank the bank account address\r\n    */\r\n    function removeBank(address bank) public onlyOwner {\r\n        banks[bank].authorized = false;\r\n        _removeSigner(bank);\r\n        emit bankRemoved(bank);\r\n    }\r\n\r\n    /**\r\n    * @dev Return bank details\r\n    * @param bank the bank account address\r\n    * @return bankName : the bank name of the search bank\r\n    * @return authorization : indicate if the bank is active or close\r\n    */\r\n    function getBankDetails(address bank) public view returns (string memory bankName, bool authorization) {\r\n        return (banks[bank].name, banks[bank].authorized);\r\n    }\r\n\r\n    /**\r\n    * @dev Create mobile number account for client by settlement bank\r\n    *      Only settlement bank can perform this function\r\n    * @param mobileNumber client's mobile number\r\n    * @param bank the settlement bank which holds the mobile number account\r\n    */\r\n    function addMobileNumber(uint256 mobileNumber, address bank) public onlySigner() {\r\n        for(uint256 count = 0; count < mobileNumbers[mobileNumber].length; count++) {\r\n            if(mobileNumbers[mobileNumber][count] == bank) {\r\n                return;\r\n            }\r\n        }\r\n        mobileNumbers[mobileNumber].push(bank);\r\n        emit mobileNumberAdded(loginBank, mobileNumber);\r\n\r\n    }\r\n\r\n    /**\r\n    * @dev Delete mobile number account for client by settlement bank\r\n    *      Only settlement bank can perform this function\r\n    * @param mobileNumber client's mobile number\r\n    * @param bank the settlement bank which holds the mobile number account\r\n    * @return boolean\r\n    */\r\n    function removeMobileNumber(uint256 mobileNumber, address bank) public onlySigner() returns(bool) {\r\n        for(uint256 count = 0; count < mobileNumbers[mobileNumber].length; count++) {\r\n             if(mobileNumbers[mobileNumber][count] == bank) {\r\n                    delete mobileNumbers[mobileNumber][count];\r\n                    //fill the gap caused by delete\r\n                 for (uint256 i = count; i < mobileNumbers[mobileNumber].length - 1; i++){\r\n                     mobileNumbers[mobileNumber][i] = mobileNumbers[mobileNumber][i+1];\r\n                 }\r\n                 mobileNumbers[mobileNumber].length--;\r\n\r\n                break;\r\n            }\r\n        }\r\n        emit mobileNumberRemoved(mobileNumber);\r\n        return true;\r\n    }\r\n\r\n    /**\r\n    * @dev Retrieve the registered banks of mobile number account\r\n    *      Only settlement bank can perform this function\r\n    * @param mobileNumber client's mobile number\r\n    * @return bank list belongs to mobile number\r\n    */\r\n    function getMobileNumberBanks(uint256 mobileNumber) public view onlySigner() returns\r\n     (address[] memory _bank) {\r\n        return mobileNumbers[mobileNumber];\r\n    }\r\n\r\n    /**\r\n    * @dev Keep records of fund transfer between settlement banks for the mobile number account\r\n    *      Only settlement bank can perform this function\r\n    * @param mobileNumber client's mobile number\r\n    * @param bank the fund sender bank address\r\n    * @param amount the fund amount\r\n    * @return boolean\r\n    */\r\n    function addMobileRecord(uint256 mobileNumber,address bank, uint256 amount) public onlySigner() returns(bool) {\r\n        mobileRecord[mobileNumber].sendBank.push(bank);\r\n        mobileRecord[mobileNumber].amount.push(amount);\r\n        emit mobileRecordAdded(mobileNumber,bank,amount);\r\n        return true;\r\n    }\r\n\r\n    /**\r\n    * @dev Retrieve records of fund transfer between settlement banks for the mobile number account\r\n    *      Only settlement bank can perform this function\r\n    * @param mobileNumber client's mobile number\r\n    * @return _record : sender bank records\r\n    * @return _amount : amount transferred\r\n    */\r\n    function getMobileRecord(uint256 mobileNumber) public view onlySigner() returns(address[] memory _record,uint256[] memory _amount) {\r\n        return (mobileRecord[mobileNumber].sendBank,mobileRecord[mobileNumber].amount);\r\n    }\r\n}",
  "sourcePath": "/mnt/c/Users/green/desktop/finaltest1/contracts/BankSetup.sol",
  "compiler": {
    "name": "solc",
    "version": "0.5.12+commit.7709ece9.Emscripten.clang"
  },
  "schemaVersion": "3.0.20",
  "updatedAt": "2020-01-31T08:43:47.773Z",
  "networkType": "ethereum",
  "devdoc": {
    "author": "Cheryl Kwong ",
    "details": "@notice This contract allows :              1. Central bank to setup, close and reopen settlement banks              2. Central bank to create and remove settlement banks role              3. View bank details              4. Settlement bank to create, close and view moible number account for their clients              5. Keep transfer fund transaction records between settlement banks ",
    "methods": {
      "addMobileNumber(uint256,address)": {
        "details": "Create mobile number account for client by settlement bank     Only settlement bank can perform this function",
        "params": {
          "bank": "the settlement bank which holds the mobile number account",
          "mobileNumber": "client's mobile number"
        }
      },
      "addMobileRecord(uint256,address,uint256)": {
        "details": "Keep records of fund transfer between settlement banks for the mobile number account     Only settlement bank can perform this function",
        "params": {
          "amount": "the fund amount",
          "bank": "the fund sender bank address",
          "mobileNumber": "client's mobile number"
        },
        "return": "boolean"
      },
      "createBank(address,string)": {
        "details": "Create a new settlement bank account     Settlement bank role create",
        "params": {
          "bank": "the bank account address",
          "bankName": "the name of the settlement bank"
        },
        "return": "boolean"
      },
      "getBankDetails(address)": {
        "details": "Return bank details",
        "params": {
          "bank": "the bank account address"
        },
        "return": "bankName : the bank name of the search bankauthorization : indicate if the bank is active or close"
      },
      "getMobileNumberBanks(uint256)": {
        "details": "Retrieve the registered banks of mobile number account     Only settlement bank can perform this function",
        "params": {
          "mobileNumber": "client's mobile number"
        },
        "return": "bank list belongs to mobile number"
      },
      "getMobileRecord(uint256)": {
        "details": "Retrieve records of fund transfer between settlement banks for the mobile number account     Only settlement bank can perform this function",
        "params": {
          "mobileNumber": "client's mobile number"
        },
        "return": "_record : sender bank records_amount : amount transferred"
      },
      "isOwner()": {
        "details": "Returns true if the caller is the current owner."
      },
      "owner()": {
        "details": "Returns the address of the current owner."
      },
      "removeBank(address)": {
        "details": "Remove a settlement bank account     Settlement bank role remove     Only contract Owner can perform this function",
        "params": {
          "bank": "the bank account address"
        }
      },
      "removeMobileNumber(uint256,address)": {
        "details": "Delete mobile number account for client by settlement bank     Only settlement bank can perform this function",
        "params": {
          "bank": "the settlement bank which holds the mobile number account",
          "mobileNumber": "client's mobile number"
        },
        "return": "boolean"
      },
      "renounceOwnership()": {
        "details": "Leaves the contract without owner. It will not be possible to call `onlyOwner` functions anymore. Can only be called by the current owner.     * NOTE: Renouncing ownership will leave the contract without an owner, thereby removing any functionality that is only available to the owner."
      },
      "reopenBank(address)": {
        "details": "Reopen an closed settlement bank account     Settlement bank role added     Only contract Owner can perform this function",
        "params": {
          "bank": "the bank account address"
        },
        "return": "boolean"
      },
      "transferOwnership(address)": {
        "details": "Transfers ownership of the contract to a new account (`newOwner`). Can only be called by the current owner."
      }
    },
    "title": "BankSetup "
  },
  "userdoc": {
    "methods": {}
  }
}