{
  "contractName": "CentralBank",
  "abi": [
    {
      "inputs": [],
      "payable": false,
      "stateMutability": "nonpayable",
      "type": "constructor"
    },
    {
      "anonymous": false,
      "inputs": [
        {
          "indexed": true,
          "internalType": "address",
          "name": "_owner",
          "type": "address"
        },
        {
          "indexed": true,
          "internalType": "address",
          "name": "_spender",
          "type": "address"
        },
        {
          "indexed": false,
          "internalType": "uint256",
          "name": "_value",
          "type": "uint256"
        }
      ],
      "name": "Approval",
      "type": "event"
    },
    {
      "anonymous": false,
      "inputs": [
        {
          "indexed": true,
          "internalType": "address",
          "name": "previousOwner",
          "type": "address"
        },
        {
          "indexed": true,
          "internalType": "address",
          "name": "newOwner",
          "type": "address"
        }
      ],
      "name": "OwnershipTransferred",
      "type": "event"
    },
    {
      "anonymous": false,
      "inputs": [
        {
          "indexed": false,
          "internalType": "address",
          "name": "account",
          "type": "address"
        }
      ],
      "name": "Paused",
      "type": "event"
    },
    {
      "anonymous": false,
      "inputs": [
        {
          "indexed": true,
          "internalType": "address",
          "name": "account",
          "type": "address"
        }
      ],
      "name": "PauserAdded",
      "type": "event"
    },
    {
      "anonymous": false,
      "inputs": [
        {
          "indexed": true,
          "internalType": "address",
          "name": "account",
          "type": "address"
        }
      ],
      "name": "PauserRemoved",
      "type": "event"
    },
    {
      "anonymous": false,
      "inputs": [
        {
          "indexed": true,
          "internalType": "address",
          "name": "account",
          "type": "address"
        }
      ],
      "name": "SignerAdded",
      "type": "event"
    },
    {
      "anonymous": false,
      "inputs": [
        {
          "indexed": true,
          "internalType": "address",
          "name": "account",
          "type": "address"
        }
      ],
      "name": "SignerRemoved",
      "type": "event"
    },
    {
      "anonymous": false,
      "inputs": [
        {
          "indexed": true,
          "internalType": "address",
          "name": "_from",
          "type": "address"
        },
        {
          "indexed": true,
          "internalType": "address",
          "name": "_to",
          "type": "address"
        },
        {
          "indexed": false,
          "internalType": "uint256",
          "name": "_value",
          "type": "uint256"
        }
      ],
      "name": "Transfer",
      "type": "event"
    },
    {
      "anonymous": false,
      "inputs": [
        {
          "indexed": false,
          "internalType": "address",
          "name": "account",
          "type": "address"
        }
      ],
      "name": "Unpaused",
      "type": "event"
    },
    {
      "anonymous": false,
      "inputs": [
        {
          "indexed": false,
          "internalType": "address",
          "name": "bankAddress",
          "type": "address"
        },
        {
          "indexed": false,
          "internalType": "string",
          "name": "bankName",
          "type": "string"
        }
      ],
      "name": "bankAdded",
      "type": "event"
    },
    {
      "anonymous": false,
      "inputs": [
        {
          "indexed": false,
          "internalType": "uint256",
          "name": "amount",
          "type": "uint256"
        },
        {
          "indexed": false,
          "internalType": "address",
          "name": "to",
          "type": "address"
        }
      ],
      "name": "bankIssued",
      "type": "event"
    },
    {
      "anonymous": false,
      "inputs": [
        {
          "indexed": false,
          "internalType": "address",
          "name": "bankAddress",
          "type": "address"
        }
      ],
      "name": "bankRemoved",
      "type": "event"
    },
    {
      "anonymous": false,
      "inputs": [
        {
          "indexed": false,
          "internalType": "address",
          "name": "bankAddress",
          "type": "address"
        }
      ],
      "name": "bankReopened",
      "type": "event"
    },
    {
      "anonymous": false,
      "inputs": [
        {
          "indexed": false,
          "internalType": "uint256",
          "name": "amount",
          "type": "uint256"
        },
        {
          "indexed": false,
          "internalType": "address",
          "name": "from",
          "type": "address"
        },
        {
          "indexed": false,
          "internalType": "address",
          "name": "to",
          "type": "address"
        }
      ],
      "name": "bankTransfer",
      "type": "event"
    },
    {
      "anonymous": false,
      "inputs": [
        {
          "indexed": false,
          "internalType": "uint256",
          "name": "amount",
          "type": "uint256"
        },
        {
          "indexed": false,
          "internalType": "address",
          "name": "from",
          "type": "address"
        }
      ],
      "name": "bankWithdraw",
      "type": "event"
    },
    {
      "anonymous": false,
      "inputs": [
        {
          "indexed": false,
          "internalType": "address",
          "name": "bankAddress",
          "type": "address"
        },
        {
          "indexed": false,
          "internalType": "uint256",
          "name": "mobileNumber",
          "type": "uint256"
        }
      ],
      "name": "mobileNumberAdded",
      "type": "event"
    },
    {
      "anonymous": false,
      "inputs": [
        {
          "indexed": false,
          "internalType": "uint256",
          "name": "mobileNumber",
          "type": "uint256"
        }
      ],
      "name": "mobileNumberRemoved",
      "type": "event"
    },
    {
      "anonymous": false,
      "inputs": [
        {
          "indexed": false,
          "internalType": "uint256",
          "name": "mobileNumber",
          "type": "uint256"
        },
        {
          "indexed": false,
          "internalType": "address",
          "name": "bank",
          "type": "address"
        },
        {
          "indexed": false,
          "internalType": "uint256",
          "name": "amount",
          "type": "uint256"
        }
      ],
      "name": "mobileRecordAdded",
      "type": "event"
    },
    {
      "payable": true,
      "stateMutability": "payable",
      "type": "fallback"
    },
    {
      "constant": false,
      "inputs": [
        {
          "internalType": "uint256",
          "name": "mobileNumber",
          "type": "uint256"
        },
        {
          "internalType": "address",
          "name": "bank",
          "type": "address"
        }
      ],
      "name": "addMobileNumber",
      "outputs": [],
      "payable": false,
      "stateMutability": "nonpayable",
      "type": "function"
    },
    {
      "constant": false,
      "inputs": [
        {
          "internalType": "uint256",
          "name": "mobileNumber",
          "type": "uint256"
        },
        {
          "internalType": "address",
          "name": "bank",
          "type": "address"
        },
        {
          "internalType": "uint256",
          "name": "amount",
          "type": "uint256"
        }
      ],
      "name": "addMobileRecord",
      "outputs": [
        {
          "internalType": "bool",
          "name": "",
          "type": "bool"
        }
      ],
      "payable": false,
      "stateMutability": "nonpayable",
      "type": "function"
    },
    {
      "constant": false,
      "inputs": [
        {
          "internalType": "address",
          "name": "account",
          "type": "address"
        }
      ],
      "name": "addPauser",
      "outputs": [],
      "payable": false,
      "stateMutability": "nonpayable",
      "type": "function"
    },
    {
      "constant": false,
      "inputs": [
        {
          "internalType": "address",
          "name": "account",
          "type": "address"
        }
      ],
      "name": "addSigner",
      "outputs": [],
      "payable": false,
      "stateMutability": "nonpayable",
      "type": "function"
    },
    {
      "constant": true,
      "inputs": [
        {
          "internalType": "address",
          "name": "_owner",
          "type": "address"
        },
        {
          "internalType": "address",
          "name": "_spender",
          "type": "address"
        }
      ],
      "name": "allowance",
      "outputs": [
        {
          "internalType": "uint256",
          "name": "",
          "type": "uint256"
        }
      ],
      "payable": false,
      "stateMutability": "view",
      "type": "function"
    },
    {
      "constant": false,
      "inputs": [
        {
          "internalType": "address",
          "name": "_spender",
          "type": "address"
        },
        {
          "internalType": "uint256",
          "name": "_value",
          "type": "uint256"
        }
      ],
      "name": "approve",
      "outputs": [
        {
          "internalType": "bool",
          "name": "",
          "type": "bool"
        }
      ],
      "payable": false,
      "stateMutability": "nonpayable",
      "type": "function"
    },
    {
      "constant": true,
      "inputs": [
        {
          "internalType": "address",
          "name": "_owner",
          "type": "address"
        }
      ],
      "name": "balanceOf",
      "outputs": [
        {
          "internalType": "uint256",
          "name": "balance",
          "type": "uint256"
        }
      ],
      "payable": false,
      "stateMutability": "view",
      "type": "function"
    },
    {
      "constant": false,
      "inputs": [
        {
          "internalType": "address",
          "name": "bank",
          "type": "address"
        },
        {
          "internalType": "string",
          "name": "bankName",
          "type": "string"
        }
      ],
      "name": "createBank",
      "outputs": [
        {
          "internalType": "bool",
          "name": "",
          "type": "bool"
        }
      ],
      "payable": false,
      "stateMutability": "nonpayable",
      "type": "function"
    },
    {
      "constant": true,
      "inputs": [],
      "name": "decimals",
      "outputs": [
        {
          "internalType": "uint256",
          "name": "",
          "type": "uint256"
        }
      ],
      "payable": false,
      "stateMutability": "view",
      "type": "function"
    },
    {
      "constant": true,
      "inputs": [
        {
          "internalType": "address",
          "name": "bank",
          "type": "address"
        }
      ],
      "name": "getBankDetails",
      "outputs": [
        {
          "internalType": "string",
          "name": "bankName",
          "type": "string"
        },
        {
          "internalType": "bool",
          "name": "authorization",
          "type": "bool"
        }
      ],
      "payable": false,
      "stateMutability": "view",
      "type": "function"
    },
    {
      "constant": true,
      "inputs": [
        {
          "internalType": "uint256",
          "name": "mobileNumber",
          "type": "uint256"
        }
      ],
      "name": "getMobileNumberBanks",
      "outputs": [
        {
          "internalType": "address[]",
          "name": "_bank",
          "type": "address[]"
        }
      ],
      "payable": false,
      "stateMutability": "view",
      "type": "function"
    },
    {
      "constant": true,
      "inputs": [
        {
          "internalType": "uint256",
          "name": "mobileNumber",
          "type": "uint256"
        }
      ],
      "name": "getMobileRecord",
      "outputs": [
        {
          "internalType": "address[]",
          "name": "_record",
          "type": "address[]"
        },
        {
          "internalType": "uint256[]",
          "name": "_amount",
          "type": "uint256[]"
        }
      ],
      "payable": false,
      "stateMutability": "view",
      "type": "function"
    },
    {
      "constant": true,
      "inputs": [],
      "name": "isOwner",
      "outputs": [
        {
          "internalType": "bool",
          "name": "",
          "type": "bool"
        }
      ],
      "payable": false,
      "stateMutability": "view",
      "type": "function"
    },
    {
      "constant": true,
      "inputs": [
        {
          "internalType": "address",
          "name": "account",
          "type": "address"
        }
      ],
      "name": "isPauser",
      "outputs": [
        {
          "internalType": "bool",
          "name": "",
          "type": "bool"
        }
      ],
      "payable": false,
      "stateMutability": "view",
      "type": "function"
    },
    {
      "constant": true,
      "inputs": [
        {
          "internalType": "address",
          "name": "account",
          "type": "address"
        }
      ],
      "name": "isSigner",
      "outputs": [
        {
          "internalType": "bool",
          "name": "",
          "type": "bool"
        }
      ],
      "payable": false,
      "stateMutability": "view",
      "type": "function"
    },
    {
      "constant": true,
      "inputs": [],
      "name": "name",
      "outputs": [
        {
          "internalType": "string",
          "name": "",
          "type": "string"
        }
      ],
      "payable": false,
      "stateMutability": "view",
      "type": "function"
    },
    {
      "constant": true,
      "inputs": [],
      "name": "owner",
      "outputs": [
        {
          "internalType": "address",
          "name": "",
          "type": "address"
        }
      ],
      "payable": false,
      "stateMutability": "view",
      "type": "function"
    },
    {
      "constant": false,
      "inputs": [],
      "name": "pause",
      "outputs": [],
      "payable": false,
      "stateMutability": "nonpayable",
      "type": "function"
    },
    {
      "constant": true,
      "inputs": [],
      "name": "paused",
      "outputs": [
        {
          "internalType": "bool",
          "name": "",
          "type": "bool"
        }
      ],
      "payable": false,
      "stateMutability": "view",
      "type": "function"
    },
    {
      "constant": false,
      "inputs": [
        {
          "internalType": "address",
          "name": "bank",
          "type": "address"
        }
      ],
      "name": "removeBank",
      "outputs": [],
      "payable": false,
      "stateMutability": "nonpayable",
      "type": "function"
    },
    {
      "constant": false,
      "inputs": [
        {
          "internalType": "uint256",
          "name": "mobileNumber",
          "type": "uint256"
        },
        {
          "internalType": "address",
          "name": "bank",
          "type": "address"
        }
      ],
      "name": "removeMobileNumber",
      "outputs": [
        {
          "internalType": "bool",
          "name": "",
          "type": "bool"
        }
      ],
      "payable": false,
      "stateMutability": "nonpayable",
      "type": "function"
    },
    {
      "constant": false,
      "inputs": [],
      "name": "renounceOwnership",
      "outputs": [],
      "payable": false,
      "stateMutability": "nonpayable",
      "type": "function"
    },
    {
      "constant": false,
      "inputs": [],
      "name": "renouncePauser",
      "outputs": [],
      "payable": false,
      "stateMutability": "nonpayable",
      "type": "function"
    },
    {
      "constant": false,
      "inputs": [],
      "name": "renounceSigner",
      "outputs": [],
      "payable": false,
      "stateMutability": "nonpayable",
      "type": "function"
    },
    {
      "constant": false,
      "inputs": [
        {
          "internalType": "address",
          "name": "bank",
          "type": "address"
        }
      ],
      "name": "reopenBank",
      "outputs": [
        {
          "internalType": "bool",
          "name": "",
          "type": "bool"
        }
      ],
      "payable": false,
      "stateMutability": "nonpayable",
      "type": "function"
    },
    {
      "constant": true,
      "inputs": [],
      "name": "symbol",
      "outputs": [
        {
          "internalType": "string",
          "name": "",
          "type": "string"
        }
      ],
      "payable": false,
      "stateMutability": "view",
      "type": "function"
    },
    {
      "constant": true,
      "inputs": [],
      "name": "totalSUpply",
      "outputs": [
        {
          "internalType": "uint256",
          "name": "",
          "type": "uint256"
        }
      ],
      "payable": false,
      "stateMutability": "view",
      "type": "function"
    },
    {
      "constant": true,
      "inputs": [],
      "name": "totalSupply",
      "outputs": [
        {
          "internalType": "uint256",
          "name": "",
          "type": "uint256"
        }
      ],
      "payable": false,
      "stateMutability": "view",
      "type": "function"
    },
    {
      "constant": false,
      "inputs": [
        {
          "internalType": "address",
          "name": "_to",
          "type": "address"
        },
        {
          "internalType": "uint256",
          "name": "_value",
          "type": "uint256"
        }
      ],
      "name": "transfer",
      "outputs": [
        {
          "internalType": "bool",
          "name": "",
          "type": "bool"
        }
      ],
      "payable": false,
      "stateMutability": "nonpayable",
      "type": "function"
    },
    {
      "constant": false,
      "inputs": [
        {
          "internalType": "address",
          "name": "_from",
          "type": "address"
        },
        {
          "internalType": "address",
          "name": "_to",
          "type": "address"
        },
        {
          "internalType": "uint256",
          "name": "_value",
          "type": "uint256"
        }
      ],
      "name": "transferFrom",
      "outputs": [
        {
          "internalType": "bool",
          "name": "",
          "type": "bool"
        }
      ],
      "payable": false,
      "stateMutability": "nonpayable",
      "type": "function"
    },
    {
      "constant": false,
      "inputs": [
        {
          "internalType": "address",
          "name": "newOwner",
          "type": "address"
        }
      ],
      "name": "transferOwnership",
      "outputs": [],
      "payable": false,
      "stateMutability": "nonpayable",
      "type": "function"
    },
    {
      "constant": false,
      "inputs": [],
      "name": "unpause",
      "outputs": [],
      "payable": false,
      "stateMutability": "nonpayable",
      "type": "function"
    },
    {
      "constant": false,
      "inputs": [
        {
          "internalType": "address",
          "name": "to",
          "type": "address"
        },
        {
          "internalType": "uint256",
          "name": "amount",
          "type": "uint256"
        }
      ],
      "name": "issueBank",
      "outputs": [
        {
          "internalType": "bool",
          "name": "",
          "type": "bool"
        }
      ],
      "payable": true,
      "stateMutability": "payable",
      "type": "function"
    },
    {
      "constant": false,
      "inputs": [
        {
          "internalType": "address",
          "name": "account",
          "type": "address"
        },
        {
          "internalType": "uint256",
          "name": "amount",
          "type": "uint256"
        }
      ],
      "name": "withdrawBank",
      "outputs": [
        {
          "internalType": "bool",
          "name": "",
          "type": "bool"
        }
      ],
      "payable": true,
      "stateMutability": "payable",
      "type": "function"
    },
    {
      "constant": false,
      "inputs": [
        {
          "internalType": "address",
          "name": "from",
          "type": "address"
        },
        {
          "internalType": "address",
          "name": "to",
          "type": "address"
        },
        {
          "internalType": "uint256",
          "name": "amount",
          "type": "uint256"
        }
      ],
      "name": "transferBank",
      "outputs": [
        {
          "internalType": "bool",
          "name": "",
          "type": "bool"
        }
      ],
      "payable": true,
      "stateMutability": "payable",
      "type": "function"
    },
    {
      "constant": true,
      "inputs": [
        {
          "internalType": "address",
          "name": "account",
          "type": "address"
        }
      ],
      "name": "getBalance",
      "outputs": [
        {
          "internalType": "uint256",
          "name": "balance",
          "type": "uint256"
        }
      ],
      "payable": false,
      "stateMutability": "view",
      "type": "function"
    },
    {
      "constant": true,
      "inputs": [],
      "name": "getTotal",
      "outputs": [
        {
          "internalType": "uint256",
          "name": "_totalIssued",
          "type": "uint256"
        },
        {
          "internalType": "uint256",
          "name": "_totalWithdraw",
          "type": "uint256"
        }
      ],
      "payable": false,
      "stateMutability": "view",
      "type": "function"
    }
  ],
  "bytecode": "0x60806040526040518060400160405280600a81526020017f4761696120546f6b656e0000000000000000000000000000000000000000000081525060059080519060200190620000519291906200066a565b506040518060400160405280600381526020017f4741540000000000000000000000000000000000000000000000000000000000815250600690805190602001906200009f9291906200066a565b506000600755348015620000b257600080fd5b50620000c3620003b260201b60201c565b600160006101000a81548173ffffffffffffffffffffffffffffffffffffffff021916908373ffffffffffffffffffffffffffffffffffffffff160217905550600160009054906101000a900473ffffffffffffffffffffffffffffffffffffffff1673ffffffffffffffffffffffffffffffffffffffff16600073ffffffffffffffffffffffffffffffffffffffff167f8be0079c531659141344cd1fd0a4f28419497f9722a3daafe3b4186f6b6457e060405160405180910390a3620f4240600281905550600254600360003373ffffffffffffffffffffffffffffffffffffffff1673ffffffffffffffffffffffffffffffffffffffff16815260200190815260200160002081905550620001f0620001e4620003b260201b60201c565b620003ba60201b60201c565b33600960006101000a81548173ffffffffffffffffffffffffffffffffffffffff021916908373ffffffffffffffffffffffffffffffffffffffff16021790555060405180604001604052806040518060400160405280601181526020017f476169612043656e7472616c2042616e6b000000000000000000000000000000815250815260200160011515815250600a6000600960009054906101000a900473ffffffffffffffffffffffffffffffffffffffff1673ffffffffffffffffffffffffffffffffffffffff1673ffffffffffffffffffffffffffffffffffffffff1681526020019081526020016000206000820151816000019080519060200190620002fd929190620006f1565b5060208201518160010160006101000a81548160ff0219169083151502179055509050506200034162000335620003b260201b60201c565b6200041b60201b60201c565b6000600e60006101000a81548160ff0219169083151502179055506200036c6200047c60201b60201c565b600e60016101000a81548173ffffffffffffffffffffffffffffffffffffffff021916908373ffffffffffffffffffffffffffffffffffffffff160217905550620007a0565b600033905090565b620003d5816008620004a660201b620038eb1790919060201c565b8073ffffffffffffffffffffffffffffffffffffffff167f47d1c22a25bb3a5d4e481b9b1e6944c2eade3181a0a20b495ed61d35b5323f2460405160405180910390a250565b6200043681600d620004a660201b620038eb1790919060201c565b8073ffffffffffffffffffffffffffffffffffffffff167f6719d08c1888103bea251a4ed56406bd0c3e69723c8a1686e017e7bbe159b6f860405160405180910390a250565b6000600160009054906101000a900473ffffffffffffffffffffffffffffffffffffffff16905090565b620004b882826200058a60201b60201c565b156200052c576040517f08c379a000000000000000000000000000000000000000000000000000000000815260040180806020018281038252601f8152602001807f526f6c65733a206163636f756e7420616c72656164792068617320726f6c650081525060200191505060405180910390fd5b60018260000160008373ffffffffffffffffffffffffffffffffffffffff1673ffffffffffffffffffffffffffffffffffffffff16815260200190815260200160002060006101000a81548160ff0219169083151502179055505050565b60008073ffffffffffffffffffffffffffffffffffffffff168273ffffffffffffffffffffffffffffffffffffffff16141562000613576040517f08c379a0000000000000000000000000000000000000000000000000000000008152600401808060200182810382526022815260200180620043ba6022913960400191505060405180910390fd5b8260000160008373ffffffffffffffffffffffffffffffffffffffff1673ffffffffffffffffffffffffffffffffffffffff16815260200190815260200160002060009054906101000a900460ff16905092915050565b828054600181600116156101000203166002900490600052602060002090601f016020900481019282601f10620006ad57805160ff1916838001178555620006de565b82800160010185558215620006de579182015b82811115620006dd578251825591602001919060010190620006c0565b5b509050620006ed919062000778565b5090565b828054600181600116156101000203166002900490600052602060002090601f016020900481019282601f106200073457805160ff191683800117855562000765565b8280016001018555821562000765579182015b828111156200076457825182559160200191906001019062000747565b5b50905062000774919062000778565b5090565b6200079d91905b80821115620007995760008160009055506001016200077f565b5090565b90565b613c0a80620007b06000396000f3fe60806040526004361061021a5760003560e01c806382dc1ec411610123578063a9205bf4116100ab578063dd62ed3e1161006f578063dd62ed3e14610f01578063e5c8b03d14610f86578063eb12d61e14610f9d578063f2fde38b14610fee578063f8b2cb4f1461103f5761021a565b8063a9205bf414610c05578063b8558cbe14610c6e578063c27a5f7b14610d6e578063c51f914414610dfe578063ca0196d814610e295761021a565b80638f32d59b116100f25780638f32d59b14610a0557806395d89b4114610a345780639649650c14610ac45780639e5eb5ec14610b15578063a9059cbb14610b925761021a565b806382dc1ec4146108e05780638456cb59146109315780638da5cb5b146109485780638dbf97ab1461099f5761021a565b80635aebe680116101a6578063715018a611610175578063715018a61461074d57806374094c3714610764578063775a25e3146107ea57806378e7b24f1461081c5780637df73e27146108775761021a565b80635aebe6801461063c5780635c975abb146106a25780636ef8d66d146106d157806370a08231146106e85761021a565b806318160ddd116101ed57806318160ddd146104d357806323b872dd146104fe578063313ce567146105915780633f4ba83a146105bc57806346fbf68e146105d35761021a565b806306fdde0314610288578063095ea7b3146103185780630a708c711461038b57806315101e02146103fe575b6040517f08c379a00000000000000000000000000000000000000000000000000000000081526004018080602001828103825260118152602001807f66616c6c6261636b2066756e6374696f6e00000000000000000000000000000081525060200191505060405180910390fd5b34801561029457600080fd5b5061029d6110a4565b6040518080602001828103825283818151815260200191508051906020019080838360005b838110156102dd5780820151818401526020810190506102c2565b50505050905090810190601f16801561030a5780820380516001836020036101000a031916815260200191505b509250505060405180910390f35b34801561032457600080fd5b506103716004803603604081101561033b57600080fd5b81019080803573ffffffffffffffffffffffffffffffffffffffff16906020019092919080359060200190929190505050611142565b604051808215151515815260200191505060405180910390f35b34801561039757600080fd5b506103e4600480360360408110156103ae57600080fd5b8101908080359060200190929190803573ffffffffffffffffffffffffffffffffffffffff1690602001909291905050506111cf565b604051808215151515815260200191505060405180910390f35b34801561040a57600080fd5b5061044d6004803603602081101561042157600080fd5b81019080803573ffffffffffffffffffffffffffffffffffffffff169060200190929190505050611483565b604051808060200183151515158152602001828103825284818151815260200191508051906020019080838360005b8381101561049757808201518184015260208101905061047c565b50505050905090810190601f1680156104c45780820380516001836020036101000a031916815260200191505b50935050505060405180910390f35b3480156104df57600080fd5b506104e86115be565b6040518082815260200191505060405180910390f35b34801561050a57600080fd5b506105776004803603606081101561052157600080fd5b81019080803573ffffffffffffffffffffffffffffffffffffffff169060200190929190803573ffffffffffffffffffffffffffffffffffffffff169060200190929190803590602001909291905050506115c4565b604051808215151515815260200191505060405180910390f35b34801561059d57600080fd5b506105a66117b0565b6040518082815260200191505060405180910390f35b3480156105c857600080fd5b506105d16117b6565b005b3480156105df57600080fd5b50610622600480360360208110156105f657600080fd5b81019080803573ffffffffffffffffffffffffffffffffffffffff169060200190929190505050611924565b604051808215151515815260200191505060405180910390f35b6106886004803603604081101561065257600080fd5b81019080803573ffffffffffffffffffffffffffffffffffffffff16906020019092919080359060200190929190505050611941565b604051808215151515815260200191505060405180910390f35b3480156106ae57600080fd5b506106b7611ad0565b604051808215151515815260200191505060405180910390f35b3480156106dd57600080fd5b506106e6611ae7565b005b3480156106f457600080fd5b506107376004803603602081101561070b57600080fd5b81019080803573ffffffffffffffffffffffffffffffffffffffff169060200190929190505050611af9565b6040518082815260200191505060405180910390f35b34801561075957600080fd5b50610762611b42565b005b6107d06004803603606081101561077a57600080fd5b81019080803573ffffffffffffffffffffffffffffffffffffffff169060200190929190803573ffffffffffffffffffffffffffffffffffffffff16906020019092919080359060200190929190505050611c7d565b604051808215151515815260200191505060405180910390f35b3480156107f657600080fd5b506107ff611db8565b604051808381526020018281526020019250505060405180910390f35b34801561082857600080fd5b506108756004803603604081101561083f57600080fd5b8101908080359060200190929190803573ffffffffffffffffffffffffffffffffffffffff169060200190929190505050611dc9565b005b34801561088357600080fd5b506108c66004803603602081101561089a57600080fd5b81019080803573ffffffffffffffffffffffffffffffffffffffff169060200190929190505050611feb565b604051808215151515815260200191505060405180910390f35b3480156108ec57600080fd5b5061092f6004803603602081101561090357600080fd5b81019080803573ffffffffffffffffffffffffffffffffffffffff169060200190929190505050612008565b005b34801561093d57600080fd5b50610946612079565b005b34801561095457600080fd5b5061095d6121e8565b604051808273ffffffffffffffffffffffffffffffffffffffff1673ffffffffffffffffffffffffffffffffffffffff16815260200191505060405180910390f35b6109eb600480360360408110156109b557600080fd5b81019080803573ffffffffffffffffffffffffffffffffffffffff16906020019092919080359060200190929190505050612212565b604051808215151515815260200191505060405180910390f35b348015610a1157600080fd5b50610a1a6123a0565b604051808215151515815260200191505060405180910390f35b348015610a4057600080fd5b50610a496123ff565b6040518080602001828103825283818151815260200191508051906020019080838360005b83811015610a89578082015181840152602081019050610a6e565b50505050905090810190601f168015610ab65780820380516001836020036101000a031916815260200191505b509250505060405180910390f35b348015610ad057600080fd5b50610b1360048036036020811015610ae757600080fd5b81019080803573ffffffffffffffffffffffffffffffffffffffff16906020019092919050505061249d565b005b348015610b2157600080fd5b50610b7860048036036060811015610b3857600080fd5b8101908080359060200190929190803573ffffffffffffffffffffffffffffffffffffffff169060200190929190803590602001909291905050506125e1565b604051808215151515815260200191505060405180910390f35b348015610b9e57600080fd5b50610beb60048036036040811015610bb557600080fd5b81019080803573ffffffffffffffffffffffffffffffffffffffff16906020019092919080359060200190929190505050612780565b604051808215151515815260200191505060405180910390f35b348015610c1157600080fd5b50610c5460048036036020811015610c2857600080fd5b81019080803573ffffffffffffffffffffffffffffffffffffffff16906020019092919050505061294e565b604051808215151515815260200191505060405180910390f35b348015610c7a57600080fd5b50610d5460048036036040811015610c9157600080fd5b81019080803573ffffffffffffffffffffffffffffffffffffffff16906020019092919080359060200190640100000000811115610cce57600080fd5b820183602082011115610ce057600080fd5b80359060200191846001830284011164010000000083111715610d0257600080fd5b91908080601f016020809104026020016040519081016040528093929190818152602001838380828437600081840152601f19601f820116905080830192505050505050509192919290505050612a9a565b604051808215151515815260200191505060405180910390f35b348015610d7a57600080fd5b50610da760048036036020811015610d9157600080fd5b8101908080359060200190929190505050612c90565b6040518080602001828103825283818151815260200191508051906020019060200280838360005b83811015610dea578082015181840152602081019050610dcf565b505050509050019250505060405180910390f35b348015610e0a57600080fd5b50610e13612d96565b6040518082815260200191505060405180910390f35b348015610e3557600080fd5b50610e6260048036036020811015610e4c57600080fd5b8101908080359060200190929190505050612da0565b604051808060200180602001838103835285818151815260200191508051906020019060200280838360005b83811015610ea9578082015181840152602081019050610e8e565b50505050905001838103825284818151815260200191508051906020019060200280838360005b83811015610eeb578082015181840152602081019050610ed0565b5050505090500194505050505060405180910390f35b348015610f0d57600080fd5b50610f7060048036036040811015610f2457600080fd5b81019080803573ffffffffffffffffffffffffffffffffffffffff169060200190929190803573ffffffffffffffffffffffffffffffffffffffff169060200190929190505050612f17565b6040518082815260200191505060405180910390f35b348015610f9257600080fd5b50610f9b612f9e565b005b348015610fa957600080fd5b50610fec60048036036020811015610fc057600080fd5b81019080803573ffffffffffffffffffffffffffffffffffffffff169060200190929190505050612fb0565b005b348015610ffa57600080fd5b5061103d6004803603602081101561101157600080fd5b81019080803573ffffffffffffffffffffffffffffffffffffffff169060200190929190505050613021565b005b34801561104b57600080fd5b5061108e6004803603602081101561106257600080fd5b81019080803573ffffffffffffffffffffffffffffffffffffffff1690602001909291905050506130a7565b6040518082815260200191505060405180910390f35b60058054600181600116156101000203166002900480601f01602080910402602001604051908101604052809291908181526020018280546001816001161561010002031660029004801561113a5780601f1061110f5761010080835404028352916020019161113a565b820191906000526020600020905b81548152906001019060200180831161111d57829003601f168201915b505050505081565b600081600460003373ffffffffffffffffffffffffffffffffffffffff1673ffffffffffffffffffffffffffffffffffffffff16815260200190815260200160002060008573ffffffffffffffffffffffffffffffffffffffff1673ffffffffffffffffffffffffffffffffffffffff168152602001908152602001600020819055506001905092915050565b60006111e16111dc6130b9565b611feb565b611236576040517f08c379a0000000000000000000000000000000000000000000000000000000008152600401808060200182810382526030815260200180613ba66030913960400191505060405180910390fd5b60008090505b600b600085815260200190815260200160002080549050811015611441578273ffffffffffffffffffffffffffffffffffffffff16600b6000868152602001908152602001600020828154811061128f57fe5b9060005260206000200160009054906101000a900473ffffffffffffffffffffffffffffffffffffffff1673ffffffffffffffffffffffffffffffffffffffff16141561143457600b600085815260200190815260200160002081815481106112f457fe5b9060005260206000200160006101000a81549073ffffffffffffffffffffffffffffffffffffffff021916905560008190505b6001600b6000878152602001908152602001600020805490500381101561140757600b6000868152602001908152602001600020600182018154811061136957fe5b9060005260206000200160009054906101000a900473ffffffffffffffffffffffffffffffffffffffff16600b600087815260200190815260200160002082815481106113b257fe5b9060005260206000200160006101000a81548173ffffffffffffffffffffffffffffffffffffffff021916908373ffffffffffffffffffffffffffffffffffffffff1602179055508080600101915050611327565b50600b600085815260200190815260200160002080548091906001900361142e91906139c6565b50611441565b808060010191505061123c565b507fd221d4795e8b405ed76af8a1d10adbd3a56abc94c508dec10a26c97b2ef95187836040518082815260200191505060405180910390a16001905092915050565b60606000600a60008473ffffffffffffffffffffffffffffffffffffffff1673ffffffffffffffffffffffffffffffffffffffff168152602001908152602001600020600001600a60008573ffffffffffffffffffffffffffffffffffffffff1673ffffffffffffffffffffffffffffffffffffffff16815260200190815260200160002060010160009054906101000a900460ff16818054600181600116156101000203166002900480601f0160208091040260200160405190810160405280929190818152602001828054600181600116156101000203166002900480156115ae5780601f10611583576101008083540402835291602001916115ae565b820191906000526020600020905b81548152906001019060200180831161159157829003601f168201915b5050505050915091509150915091565b60005481565b6000600360008573ffffffffffffffffffffffffffffffffffffffff1673ffffffffffffffffffffffffffffffffffffffff1681526020019081526020016000205482111561167b576040517f08c379a000000000000000000000000000000000000000000000000000000000815260040180806020018281038252601e8152602001807f5472616e7366657220616d6f756e74206578636565642062616c616e6365000081525060200191505060405180910390fd5b6116cd82600360008773ffffffffffffffffffffffffffffffffffffffff1673ffffffffffffffffffffffffffffffffffffffff168152602001908152602001600020546130c190919063ffffffff16565b600360008673ffffffffffffffffffffffffffffffffffffffff1673ffffffffffffffffffffffffffffffffffffffff1681526020019081526020016000208190555061176282600360008673ffffffffffffffffffffffffffffffffffffffff1673ffffffffffffffffffffffffffffffffffffffff1681526020019081526020016000205461310b90919063ffffffff16565b600360008573ffffffffffffffffffffffffffffffffffffffff1673ffffffffffffffffffffffffffffffffffffffff16815260200190815260200160002081905550600190509392505050565b60075481565b6117c66117c16130b9565b611924565b61181b576040517f08c379a0000000000000000000000000000000000000000000000000000000008152600401808060200182810382526030815260200180613aba6030913960400191505060405180910390fd5b600e60009054906101000a900460ff1661189d576040517f08c379a00000000000000000000000000000000000000000000000000000000081526004018080602001828103825260148152602001807f5061757361626c653a206e6f742070617573656400000000000000000000000081525060200191505060405180910390fd5b6000600e60006101000a81548160ff0219169083151502179055507f5db9ee0a495bf2e6ff9c91a7834c1ba4fdd244a5e8aa4e537bd38aeae4b073aa6118e16130b9565b604051808273ffffffffffffffffffffffffffffffffffffffff1673ffffffffffffffffffffffffffffffffffffffff16815260200191505060405180910390a1565b600061193a82600d61319390919063ffffffff16565b9050919050565b600061194b6123a0565b6119bd576040517f08c379a00000000000000000000000000000000000000000000000000000000081526004018080602001828103825260208152602001807f4f776e61626c653a2063616c6c6572206973206e6f7420746865206f776e657281525060200191505060405180910390fd5b600e60009054906101000a900460ff1615611a40576040517f08c379a00000000000000000000000000000000000000000000000000000000081526004018080602001828103825260108152602001807f5061757361626c653a207061757365640000000000000000000000000000000081525060200191505060405180910390fd5b81601060008282540192505081905550611a5a8383612780565b507ff7d9bfd73736edfac668e2768f9b7232ca40502b0f180df38a348b4a33693cc58284604051808381526020018273ffffffffffffffffffffffffffffffffffffffff1673ffffffffffffffffffffffffffffffffffffffff1681526020019250505060405180910390a16001905092915050565b6000600e60009054906101000a900460ff16905090565b611af7611af26130b9565b613271565b565b6000600360008373ffffffffffffffffffffffffffffffffffffffff1673ffffffffffffffffffffffffffffffffffffffff168152602001908152602001600020549050919050565b611b4a6123a0565b611bbc576040517f08c379a00000000000000000000000000000000000000000000000000000000081526004018080602001828103825260208152602001807f4f776e61626c653a2063616c6c6572206973206e6f7420746865206f776e657281525060200191505060405180910390fd5b600073ffffffffffffffffffffffffffffffffffffffff16600160009054906101000a900473ffffffffffffffffffffffffffffffffffffffff1673ffffffffffffffffffffffffffffffffffffffff167f8be0079c531659141344cd1fd0a4f28419497f9722a3daafe3b4186f6b6457e060405160405180910390a36000600160006101000a81548173ffffffffffffffffffffffffffffffffffffffff021916908373ffffffffffffffffffffffffffffffffffffffff160217905550565b6000600e60009054906101000a900460ff1615611d02576040517f08c379a00000000000000000000000000000000000000000000000000000000081526004018080602001828103825260108152602001807f5061757361626c653a207061757365640000000000000000000000000000000081525060200191505060405180910390fd5b611d0d8484846115c4565b507f952f35c861961a18fa33bde8bf3bef0db507697e960588b87b97572fa21bcdb0828585604051808481526020018373ffffffffffffffffffffffffffffffffffffffff1673ffffffffffffffffffffffffffffffffffffffff1681526020018273ffffffffffffffffffffffffffffffffffffffff1673ffffffffffffffffffffffffffffffffffffffff168152602001935050505060405180910390a1600190509392505050565b600080601054600f54915091509091565b611dd9611dd46130b9565b611feb565b611e2e576040517f08c379a0000000000000000000000000000000000000000000000000000000008152600401808060200182810382526030815260200180613ba66030913960400191505060405180910390fd5b60008090505b600b600084815260200190815260200160002080549050811015611ee1578173ffffffffffffffffffffffffffffffffffffffff16600b60008581526020019081526020016000208281548110611e8757fe5b9060005260206000200160009054906101000a900473ffffffffffffffffffffffffffffffffffffffff1673ffffffffffffffffffffffffffffffffffffffff161415611ed45750611fe7565b8080600101915050611e34565b50600b60008381526020019081526020016000208190806001815401808255809150509060018203906000526020600020016000909192909190916101000a81548173ffffffffffffffffffffffffffffffffffffffff021916908373ffffffffffffffffffffffffffffffffffffffff160217905550507f5df8e4d9a90a0dfaef90d6590c125fb28bd2ae8651f164b537fd550dd9afdc7b600960009054906101000a900473ffffffffffffffffffffffffffffffffffffffff1683604051808373ffffffffffffffffffffffffffffffffffffffff1673ffffffffffffffffffffffffffffffffffffffff1681526020018281526020019250505060405180910390a15b5050565b600061200182600861319390919063ffffffff16565b9050919050565b6120186120136130b9565b611924565b61206d576040517f08c379a0000000000000000000000000000000000000000000000000000000008152600401808060200182810382526030815260200180613aba6030913960400191505060405180910390fd5b612076816132cb565b50565b6120896120846130b9565b611924565b6120de576040517f08c379a0000000000000000000000000000000000000000000000000000000008152600401808060200182810382526030815260200180613aba6030913960400191505060405180910390fd5b600e60009054906101000a900460ff1615612161576040517f08c379a00000000000000000000000000000000000000000000000000000000081526004018080602001828103825260108152602001807f5061757361626c653a207061757365640000000000000000000000000000000081525060200191505060405180910390fd5b6001600e60006101000a81548160ff0219169083151502179055507f62e78cea01bee320cd4e420270b5ea74000d11b0c9f74754ebdbfc544b05a2586121a56130b9565b604051808273ffffffffffffffffffffffffffffffffffffffff1673ffffffffffffffffffffffffffffffffffffffff16815260200191505060405180910390a1565b6000600160009054906101000a900473ffffffffffffffffffffffffffffffffffffffff16905090565b600061221c6123a0565b61228e576040517f08c379a00000000000000000000000000000000000000000000000000000000081526004018080602001828103825260208152602001807f4f776e61626c653a2063616c6c6572206973206e6f7420746865206f776e657281525060200191505060405180910390fd5b600e60009054906101000a900460ff1615612311576040517f08c379a00000000000000000000000000000000000000000000000000000000081526004018080602001828103825260108152602001807f5061757361626c653a207061757365640000000000000000000000000000000081525060200191505060405180910390fd5b81600f6000828254019250508190555061232b8383613325565b7f84524e43cc12e214947d7cc238026a475b070727d45032bfb4b9d41c3d103c198284604051808381526020018273ffffffffffffffffffffffffffffffffffffffff1673ffffffffffffffffffffffffffffffffffffffff1681526020019250505060405180910390a16001905092915050565b6000600160009054906101000a900473ffffffffffffffffffffffffffffffffffffffff1673ffffffffffffffffffffffffffffffffffffffff166123e36130b9565b73ffffffffffffffffffffffffffffffffffffffff1614905090565b60068054600181600116156101000203166002900480601f0160208091040260200160405190810160405280929190818152602001828054600181600116156101000203166002900480156124955780601f1061246a57610100808354040283529160200191612495565b820191906000526020600020905b81548152906001019060200180831161247857829003601f168201915b505050505081565b6124a56123a0565b612517576040517f08c379a00000000000000000000000000000000000000000000000000000000081526004018080602001828103825260208152602001807f4f776e61626c653a2063616c6c6572206973206e6f7420746865206f776e657281525060200191505060405180910390fd5b6000600a60008373ffffffffffffffffffffffffffffffffffffffff1673ffffffffffffffffffffffffffffffffffffffff16815260200190815260200160002060010160006101000a81548160ff02191690831515021790555061257b81613574565b7fe3e5c5370b774840383ec3fed4645270fc0ef033b07c288700b5de33a6e1aa3381604051808273ffffffffffffffffffffffffffffffffffffffff1673ffffffffffffffffffffffffffffffffffffffff16815260200191505060405180910390a150565b60006125f36125ee6130b9565b611feb565b612648576040517f08c379a0000000000000000000000000000000000000000000000000000000008152600401808060200182810382526030815260200180613ba66030913960400191505060405180910390fd5b600c60008581526020019081526020016000206000018390806001815401808255809150509060018203906000526020600020016000909192909190916101000a81548173ffffffffffffffffffffffffffffffffffffffff021916908373ffffffffffffffffffffffffffffffffffffffff16021790555050600c60008581526020019081526020016000206001018290806001815401808255809150509060018203906000526020600020016000909192909190915055507f45cb78271d603378233590040f732e0414a19a7de4d281b3a6e0ed100b05b144848484604051808481526020018373ffffffffffffffffffffffffffffffffffffffff1673ffffffffffffffffffffffffffffffffffffffff168152602001828152602001935050505060405180910390a1600190509392505050565b6000600360003373ffffffffffffffffffffffffffffffffffffffff1673ffffffffffffffffffffffffffffffffffffffff1681526020019081526020016000205482111561281a576040517f08c379a0000000000000000000000000000000000000000000000000000000008152600401808060200182810382526032815260200180613b536032913960400191505060405180910390fd5b61286c82600360003373ffffffffffffffffffffffffffffffffffffffff1673ffffffffffffffffffffffffffffffffffffffff168152602001908152602001600020546130c190919063ffffffff16565b600360003373ffffffffffffffffffffffffffffffffffffffff1673ffffffffffffffffffffffffffffffffffffffff1681526020019081526020016000208190555061290182600360008673ffffffffffffffffffffffffffffffffffffffff1673ffffffffffffffffffffffffffffffffffffffff1681526020019081526020016000205461310b90919063ffffffff16565b600360008573ffffffffffffffffffffffffffffffffffffffff1673ffffffffffffffffffffffffffffffffffffffff168152602001908152602001600020819055506001905092915050565b60006129586123a0565b6129ca576040517f08c379a00000000000000000000000000000000000000000000000000000000081526004018080602001828103825260208152602001807f4f776e61626c653a2063616c6c6572206973206e6f7420746865206f776e657281525060200191505060405180910390fd5b6001600a60008473ffffffffffffffffffffffffffffffffffffffff1673ffffffffffffffffffffffffffffffffffffffff16815260200190815260200160002060010160006101000a81548160ff021916908315150217905550612a2e826135ce565b7f7bbf54e82065601cca7d6dfda797c2671c1661bd0206fcdd08ba7ee0524440de82604051808273ffffffffffffffffffffffffffffffffffffffff1673ffffffffffffffffffffffffffffffffffffffff16815260200191505060405180910390a160019050919050565b6000612aa46123a0565b612b16576040517f08c379a00000000000000000000000000000000000000000000000000000000081526004018080602001828103825260208152602001807f4f776e61626c653a2063616c6c6572206973206e6f7420746865206f776e657281525060200191505060405180910390fd5b604051806040016040528083815260200160011515815250600a60008573ffffffffffffffffffffffffffffffffffffffff1673ffffffffffffffffffffffffffffffffffffffff1681526020019081526020016000206000820151816000019080519060200190612b899291906139f2565b5060208201518160010160006101000a81548160ff021916908315150217905550905050612bb6836135ce565b7faa6cbb7deeebddc29368336fd18e97ea31f1a41a7dea158381add9b0bfa39c878383604051808373ffffffffffffffffffffffffffffffffffffffff1673ffffffffffffffffffffffffffffffffffffffff16815260200180602001828103825283818151815260200191508051906020019080838360005b83811015612c4b578082015181840152602081019050612c30565b50505050905090810190601f168015612c785780820380516001836020036101000a031916815260200191505b50935050505060405180910390a16001905092915050565b6060612ca2612c9d6130b9565b611feb565b612cf7576040517f08c379a0000000000000000000000000000000000000000000000000000000008152600401808060200182810382526030815260200180613ba66030913960400191505060405180910390fd5b600b6000838152602001908152602001600020805480602002602001604051908101604052809291908181526020018280548015612d8a57602002820191906000526020600020905b8160009054906101000a900473ffffffffffffffffffffffffffffffffffffffff1673ffffffffffffffffffffffffffffffffffffffff1681526020019060010190808311612d40575b50505050509050919050565b6000600254905090565b606080612db3612dae6130b9565b611feb565b612e08576040517f08c379a0000000000000000000000000000000000000000000000000000000008152600401808060200182810382526030815260200180613ba66030913960400191505060405180910390fd5b600c6000848152602001908152602001600020600001600c600085815260200190815260200160002060010181805480602002602001604051908101604052809291908181526020018280548015612eb557602002820191906000526020600020905b8160009054906101000a900473ffffffffffffffffffffffffffffffffffffffff1673ffffffffffffffffffffffffffffffffffffffff1681526020019060010190808311612e6b575b5050505050915080805480602002602001604051908101604052809291908181526020018280548015612f0757602002820191906000526020600020905b815481526020019060010190808311612ef3575b5050505050905091509150915091565b6000600460008473ffffffffffffffffffffffffffffffffffffffff1673ffffffffffffffffffffffffffffffffffffffff16815260200190815260200160002060008373ffffffffffffffffffffffffffffffffffffffff1673ffffffffffffffffffffffffffffffffffffffff16815260200190815260200160002054905092915050565b612fae612fa96130b9565b613574565b565b612fc0612fbb6130b9565b611feb565b613015576040517f08c379a0000000000000000000000000000000000000000000000000000000008152600401808060200182810382526030815260200180613ba66030913960400191505060405180910390fd5b61301e816135ce565b50565b6130296123a0565b61309b576040517f08c379a00000000000000000000000000000000000000000000000000000000081526004018080602001828103825260208152602001807f4f776e61626c653a2063616c6c6572206973206e6f7420746865206f776e657281525060200191505060405180910390fd5b6130a481613628565b50565b60006130b282611af9565b9050919050565b600033905090565b600061310383836040518060400160405280601e81526020017f536166654d6174683a207375627472616374696f6e206f766572666c6f77000081525061376e565b905092915050565b600080828401905083811015613189576040517f08c379a000000000000000000000000000000000000000000000000000000000815260040180806020018281038252601b8152602001807f536166654d6174683a206164646974696f6e206f766572666c6f77000000000081525060200191505060405180910390fd5b8091505092915050565b60008073ffffffffffffffffffffffffffffffffffffffff168273ffffffffffffffffffffffffffffffffffffffff16141561321a576040517f08c379a0000000000000000000000000000000000000000000000000000000008152600401808060200182810382526022815260200180613b316022913960400191505060405180910390fd5b8260000160008373ffffffffffffffffffffffffffffffffffffffff1673ffffffffffffffffffffffffffffffffffffffff16815260200190815260200160002060009054906101000a900460ff16905092915050565b61328581600d61382e90919063ffffffff16565b8073ffffffffffffffffffffffffffffffffffffffff167fcd265ebaf09df2871cc7bd4133404a235ba12eff2041bb89d9c714a2621c7c7e60405160405180910390a250565b6132df81600d6138eb90919063ffffffff16565b8073ffffffffffffffffffffffffffffffffffffffff167f6719d08c1888103bea251a4ed56406bd0c3e69723c8a1686e017e7bbe159b6f860405160405180910390a250565b61339181604051806060016040528060228152602001613a9860229139600360008673ffffffffffffffffffffffffffffffffffffffff1673ffffffffffffffffffffffffffffffffffffffff1681526020019081526020016000205461376e9092919063ffffffff16565b600360008473ffffffffffffffffffffffffffffffffffffffff1673ffffffffffffffffffffffffffffffffffffffff1681526020019081526020016000208190555061342681600360003373ffffffffffffffffffffffffffffffffffffffff1673ffffffffffffffffffffffffffffffffffffffff1681526020019081526020016000205461310b90919063ffffffff16565b600360003373ffffffffffffffffffffffffffffffffffffffff1673ffffffffffffffffffffffffffffffffffffffff1681526020019081526020016000208190555061347e816002546130c190919063ffffffff16565b600281905550600073ffffffffffffffffffffffffffffffffffffffff168273ffffffffffffffffffffffffffffffffffffffff16141561350a576040517f08c379a0000000000000000000000000000000000000000000000000000000008152600401808060200182810382526021815260200180613b856021913960400191505060405180910390fd5b600073ffffffffffffffffffffffffffffffffffffffff168273ffffffffffffffffffffffffffffffffffffffff167fddf252ad1be2c89b69c2b068fc378daa952ba7f163c4a11628f55a4df523b3ef836040518082815260200191505060405180910390a35050565b61358881600861382e90919063ffffffff16565b8073ffffffffffffffffffffffffffffffffffffffff167f3525e22824a8a7df2c9a6029941c824cf95b6447f1e13d5128fd3826d35afe8b60405160405180910390a250565b6135e28160086138eb90919063ffffffff16565b8073ffffffffffffffffffffffffffffffffffffffff167f47d1c22a25bb3a5d4e481b9b1e6944c2eade3181a0a20b495ed61d35b5323f2460405160405180910390a250565b600073ffffffffffffffffffffffffffffffffffffffff168173ffffffffffffffffffffffffffffffffffffffff1614156136ae576040517f08c379a0000000000000000000000000000000000000000000000000000000008152600401808060200182810382526026815260200180613aea6026913960400191505060405180910390fd5b8073ffffffffffffffffffffffffffffffffffffffff16600160009054906101000a900473ffffffffffffffffffffffffffffffffffffffff1673ffffffffffffffffffffffffffffffffffffffff167f8be0079c531659141344cd1fd0a4f28419497f9722a3daafe3b4186f6b6457e060405160405180910390a380600160006101000a81548173ffffffffffffffffffffffffffffffffffffffff021916908373ffffffffffffffffffffffffffffffffffffffff16021790555050565b600083831115829061381b576040517f08c379a00000000000000000000000000000000000000000000000000000000081526004018080602001828103825283818151815260200191508051906020019080838360005b838110156137e05780820151818401526020810190506137c5565b50505050905090810190601f16801561380d5780820380516001836020036101000a031916815260200191505b509250505060405180910390fd5b5060008385039050809150509392505050565b6138388282613193565b61388d576040517f08c379a0000000000000000000000000000000000000000000000000000000008152600401808060200182810382526021815260200180613b106021913960400191505060405180910390fd5b60008260000160008373ffffffffffffffffffffffffffffffffffffffff1673ffffffffffffffffffffffffffffffffffffffff16815260200190815260200160002060006101000a81548160ff0219169083151502179055505050565b6138f58282613193565b15613968576040517f08c379a000000000000000000000000000000000000000000000000000000000815260040180806020018281038252601f8152602001807f526f6c65733a206163636f756e7420616c72656164792068617320726f6c650081525060200191505060405180910390fd5b60018260000160008373ffffffffffffffffffffffffffffffffffffffff1673ffffffffffffffffffffffffffffffffffffffff16815260200190815260200160002060006101000a81548160ff0219169083151502179055505050565b8154818355818111156139ed578183600052602060002091820191016139ec9190613a72565b5b505050565b828054600181600116156101000203166002900490600052602060002090601f016020900481019282601f10613a3357805160ff1916838001178555613a61565b82800160010185558215613a61579182015b82811115613a60578251825591602001919060010190613a45565b5b509050613a6e9190613a72565b5090565b613a9491905b80821115613a90576000816000905550600101613a78565b5090565b9056fe45524332303a206275726e20616d6f756e7420657863656564732062616c616e6365506175736572526f6c653a2063616c6c657220646f6573206e6f742068617665207468652050617573657220726f6c654f776e61626c653a206e6577206f776e657220697320746865207a65726f2061646472657373526f6c65733a206163636f756e7420646f6573206e6f74206861766520726f6c65526f6c65733a206163636f756e7420697320746865207a65726f206164647265737363616e6e6f74206265206f776e657220616e64207472616e7366657220616d6f756e74206578636565642062616c616e636545524332303a206275726e2066726f6d20746865207a65726f20616464726573735369676e6572526f6c653a2063616c6c657220646f6573206e6f74206861766520746865205369676e657220726f6c65a265627a7a723158207bc7699da3a6288e0aba4d305f37e7db21d94adf75154dad45b5daa0a3d2d9e964736f6c634300050c0032526f6c65733a206163636f756e7420697320746865207a65726f2061646472657373",
  "source": "pragma solidity ^0.5.0;\r\n\r\nimport '../node_modules/@openzeppelin/contracts/ownership/Ownable.sol';\r\nimport '../node_modules/@openzeppelin/contracts/lifecycle/Pausable.sol';\r\nimport '../node_modules/@openzeppelin/contracts/math/SafeMath.sol';\r\nimport './ERC20Token.sol';\r\nimport './BankSetup.sol';\r\n\r\n/**\r\n* @title CentralBank\r\n*\r\n* @dev @notice This contract allows :\r\n*               1. Central bank to issue or withdraw fund from settlement banks\r\n*               2. Transfer payment between authorized settlement banks\r\n*               3. Keep records for total issue fund and total refund(withdraw fund) for central bank\r\n*               4. View account balance for both central bank and settlement banks\r\n*\r\n* @author Cheryl Kwong\r\n*\r\n*/\r\n\r\ncontract CentralBank is Ownable, ERC20Token, BankSetup, Pausable {\r\n    // Avoiding common attacks : Integer Over/Underflow\r\n    using SafeMath for uint256;\r\n\r\n    // Central Bank owner;\r\n    address private cBank ;\r\n\r\n    // total fund withdraw from settlement bank by central bank when the bank closed\r\n    uint internal totalWithdraw;\r\n\r\n    // total fund issued by central bank to settlement bank when it's opened or reopened\r\n    uint internal totalIssued;\r\n\r\n    // total amount transfer from sender bank to beneficiary bank\r\n    uint internal totalTransfer;\r\n\r\n    // Events - publicize actions to external listeners\r\n    event bankIssued(uint amount, address to);\r\n    event bankWithdraw(uint amount, address from);\r\n    event bankTransfer(uint amount, address from, address to);\r\n\r\n    constructor () public {\r\n        cBank = owner();\r\n   }\r\n\r\n    // Fallback function - Called if other functions don't match call or sent amount without data\r\n    function() external payable {\r\n        revert(\"fallback function\");\r\n    }\r\n\r\n    /**\r\n    * @dev To issue fund to settlement bank account when it's created\r\n    *      Total amount of issued fund will be added\r\n    * @param to settlement account address\r\n    * @param amount credit amount / fund\r\n    */\r\n    function issueBank(address to, uint256 amount) public payable onlyOwner whenNotPaused returns(bool){\r\n        totalIssued += amount;\r\n        transfer(to, amount);\r\n        emit bankIssued(amount, to);\r\n        return true;\r\n    }\r\n\r\n    /**\r\n    * @dev To withdraw fund from a settlement account when bank closed\r\n    *      Total amount of withdraw fund wil be added\r\n    * @param account settlement account address\r\n    * @param amount debit amount / fund\r\n    */\r\n    function withdrawBank(address account, uint256 amount) public payable onlyOwner whenNotPaused returns(bool) {\r\n        totalWithdraw += amount;\r\n        withdraw(account, amount);\r\n        emit bankWithdraw(amount, account);\r\n        return true;\r\n    }\r\n\r\n    /**\r\n    * @dev transfer payment between settlement banks\r\n    * @param from settlement account address of the payment sender\r\n    * @param to receivable settlement account address\r\n    * @param amount debit and credit amount\r\n    */\r\n    function transferBank(address from, address to,uint256 amount) public payable\r\n        whenNotPaused\r\n        returns(bool)\r\n    {\r\n        transferFrom(from, to, amount);\r\n        emit bankTransfer(amount, from, to);\r\n        return true;\r\n    }\r\n\r\n    /**\r\n    * @dev get balance of a bank account\r\n    * @param account the account address\r\n    * @return account balance\r\n    */\r\n    function getBalance(address account) public view returns (uint256 balance) {\r\n        return balanceOf(account);\r\n    }\r\n\r\n    /**\r\n    * @dev keep track of total fund being issued by central bank and withdraw back to central bank\r\n    * @return total issued fund and total returned fund\r\n    */\r\n    function getTotal() public view returns (uint256 _totalIssued, uint256 _totalWithdraw) {\r\n        return (totalIssued, totalWithdraw);\r\n    }\r\n}",
  "sourcePath": "/mnt/c/Users/green/desktop/finaltest1/contracts/CentralBank.sol",
  "compiler": {
    "name": "solc",
    "version": "0.5.12+commit.7709ece9.Emscripten.clang"
  },
  "schemaVersion": "3.0.20",
  "updatedAt": "2020-01-31T08:43:47.761Z",
  "networkType": "ethereum",
  "devdoc": {
    "author": "Cheryl Kwong ",
    "details": "@notice This contract allows :              1. Central bank to issue or withdraw fund from settlement banks              2. Transfer payment between authorized settlement banks              3. Keep records for total issue fund and total refund(withdraw fund) for central bank              4. View account balance for both central bank and settlement banks ",
    "methods": {
      "addMobileNumber(uint256,address)": {
        "details": "Create mobile number account for client by settlement bank     Only settlement bank can perform this function",
        "params": {
          "bank": "the settlement bank which holds the mobile number account",
          "mobileNumber": "client's mobile number"
        }
      },
      "addMobileRecord(uint256,address,uint256)": {
        "details": "Keep records of fund transfer between settlement banks for the mobile number account     Only settlement bank can perform this function",
        "params": {
          "amount": "the fund amount",
          "bank": "the fund sender bank address",
          "mobileNumber": "client's mobile number"
        },
        "return": "boolean"
      },
      "allowance(address,address)": {
        "details": "Function to check the amount of tokens that an owner allowed to a spender.",
        "params": {
          "_owner": "address The address which owns the funds.",
          "_spender": "address The address which will spend the funds."
        },
        "return": "A uint256 specifying the amount of tokens still available for the spender."
      },
      "approve(address,uint256)": {
        "details": "Approve the passed address to spend the specified amount of tokens on behalf of msg.sender.",
        "params": {
          "_spender": "The address which will spend the funds.",
          "_value": "The amount of tokens to be spent."
        }
      },
      "balanceOf(address)": {
        "details": "Gets the balance of the specified address.",
        "params": {
          "_owner": "The address to query the the balance of."
        },
        "return": "An uint256 representing the amount owned by the passed address."
      },
      "createBank(address,string)": {
        "details": "Create a new settlement bank account     Settlement bank role create",
        "params": {
          "bank": "the bank account address",
          "bankName": "the name of the settlement bank"
        },
        "return": "boolean"
      },
      "getBalance(address)": {
        "details": "get balance of a bank account",
        "params": {
          "account": "the account address"
        },
        "return": "account balance"
      },
      "getBankDetails(address)": {
        "details": "Return bank details",
        "params": {
          "bank": "the bank account address"
        },
        "return": "bankName : the bank name of the search bankauthorization : indicate if the bank is active or close"
      },
      "getMobileNumberBanks(uint256)": {
        "details": "Retrieve the registered banks of mobile number account     Only settlement bank can perform this function",
        "params": {
          "mobileNumber": "client's mobile number"
        },
        "return": "bank list belongs to mobile number"
      },
      "getMobileRecord(uint256)": {
        "details": "Retrieve records of fund transfer between settlement banks for the mobile number account     Only settlement bank can perform this function",
        "params": {
          "mobileNumber": "client's mobile number"
        },
        "return": "_record : sender bank records_amount : amount transferred"
      },
      "getTotal()": {
        "details": "keep track of total fund being issued by central bank and withdraw back to central bank",
        "return": "total issued fund and total returned fund"
      },
      "isOwner()": {
        "details": "Returns true if the caller is the current owner."
      },
      "issueBank(address,uint256)": {
        "details": "To issue fund to settlement bank account when it's created     Total amount of issued fund will be added",
        "params": {
          "amount": "credit amount / fund",
          "to": "settlement account address"
        }
      },
      "owner()": {
        "details": "Returns the address of the current owner."
      },
      "pause()": {
        "details": "Called by a pauser to pause, triggers stopped state."
      },
      "paused()": {
        "details": "Returns true if the contract is paused, and false otherwise."
      },
      "removeBank(address)": {
        "details": "Remove a settlement bank account     Settlement bank role remove     Only contract Owner can perform this function",
        "params": {
          "bank": "the bank account address"
        }
      },
      "removeMobileNumber(uint256,address)": {
        "details": "Delete mobile number account for client by settlement bank     Only settlement bank can perform this function",
        "params": {
          "bank": "the settlement bank which holds the mobile number account",
          "mobileNumber": "client's mobile number"
        },
        "return": "boolean"
      },
      "renounceOwnership()": {
        "details": "Leaves the contract without owner. It will not be possible to call `onlyOwner` functions anymore. Can only be called by the current owner.     * NOTE: Renouncing ownership will leave the contract without an owner, thereby removing any functionality that is only available to the owner."
      },
      "reopenBank(address)": {
        "details": "Reopen an closed settlement bank account     Settlement bank role added     Only contract Owner can perform this function",
        "params": {
          "bank": "the bank account address"
        },
        "return": "boolean"
      },
      "totalSUpply()": {
        "details": "returns the latest totalSupply"
      },
      "transfer(address,uint256)": {
        "details": "transfer token for a specified address",
        "params": {
          "_to": "The address to transfer to.",
          "_value": "The amount to be transferred."
        }
      },
      "transferBank(address,address,uint256)": {
        "details": "transfer payment between settlement banks",
        "params": {
          "amount": "debit and credit amount",
          "from": "settlement account address of the payment sender",
          "to": "receivable settlement account address"
        }
      },
      "transferFrom(address,address,uint256)": {
        "details": "Transfer tokens from one address to another",
        "params": {
          "_from": "address The address which you want to send tokens from",
          "_to": "address The address which you want to transfer to",
          "_value": "uint256 the amount of tokens to be transferred"
        }
      },
      "transferOwnership(address)": {
        "details": "Transfers ownership of the contract to a new account (`newOwner`). Can only be called by the current owner."
      },
      "unpause()": {
        "details": "Called by a pauser to unpause, returns to normal state."
      },
      "withdrawBank(address,uint256)": {
        "details": "To withdraw fund from a settlement account when bank closed     Total amount of withdraw fund wil be added",
        "params": {
          "account": "settlement account address",
          "amount": "debit amount / fund"
        }
      }
    },
    "title": "CentralBank "
  },
  "userdoc": {
    "methods": {}
  }
}